{
  "_format": "hh-sol-artifact-1",
  "contractName": "DAOTreasury",
  "sourceName": "contracts/DAOTreasury.sol",
  "abi": [
    {
      "inputs": [
        {
          "internalType": "address",
          "name": "_aitToken",
          "type": "address"
        },
        {
          "internalType": "address",
          "name": "_governance",
          "type": "address"
        }
      ],
      "stateMutability": "nonpayable",
      "type": "constructor"
    },
    {
      "inputs": [],
      "name": "AccessControlBadConfirmation",
      "type": "error"
    },
    {
      "inputs": [
        {
          "internalType": "address",
          "name": "account",
          "type": "address"
        },
        {
          "internalType": "bytes32",
          "name": "neededRole",
          "type": "bytes32"
        }
      ],
      "name": "AccessControlUnauthorizedAccount",
      "type": "error"
    },
    {
      "inputs": [
        {
          "internalType": "address",
          "name": "target",
          "type": "address"
        }
      ],
      "name": "AddressEmptyCode",
      "type": "error"
    },
    {
      "inputs": [
        {
          "internalType": "address",
          "name": "account",
          "type": "address"
        }
      ],
      "name": "AddressInsufficientBalance",
      "type": "error"
    },
    {
      "inputs": [],
      "name": "FailedInnerCall",
      "type": "error"
    },
    {
      "inputs": [],
      "name": "ReentrancyGuardReentrantCall",
      "type": "error"
    },
    {
      "inputs": [
        {
          "internalType": "address",
          "name": "token",
          "type": "address"
        }
      ],
      "name": "SafeERC20FailedOperation",
      "type": "error"
    },
    {
      "anonymous": false,
      "inputs": [
        {
          "indexed": true,
          "internalType": "address",
          "name": "to",
          "type": "address"
        },
        {
          "indexed": false,
          "internalType": "uint256",
          "name": "amount",
          "type": "uint256"
        },
        {
          "indexed": false,
          "internalType": "string",
          "name": "reason",
          "type": "string"
        }
      ],
      "name": "FundsDisbursed",
      "type": "event"
    },
    {
      "anonymous": false,
      "inputs": [
        {
          "indexed": true,
          "internalType": "address",
          "name": "from",
          "type": "address"
        },
        {
          "indexed": false,
          "internalType": "uint256",
          "name": "amount",
          "type": "uint256"
        }
      ],
      "name": "FundsReceived",
      "type": "event"
    },
    {
      "anonymous": false,
      "inputs": [
        {
          "indexed": true,
          "internalType": "bytes32",
          "name": "role",
          "type": "bytes32"
        },
        {
          "indexed": true,
          "internalType": "bytes32",
          "name": "previousAdminRole",
          "type": "bytes32"
        },
        {
          "indexed": true,
          "internalType": "bytes32",
          "name": "newAdminRole",
          "type": "bytes32"
        }
      ],
      "name": "RoleAdminChanged",
      "type": "event"
    },
    {
      "anonymous": false,
      "inputs": [
        {
          "indexed": true,
          "internalType": "bytes32",
          "name": "role",
          "type": "bytes32"
        },
        {
          "indexed": true,
          "internalType": "address",
          "name": "account",
          "type": "address"
        },
        {
          "indexed": true,
          "internalType": "address",
          "name": "sender",
          "type": "address"
        }
      ],
      "name": "RoleGranted",
      "type": "event"
    },
    {
      "anonymous": false,
      "inputs": [
        {
          "indexed": true,
          "internalType": "bytes32",
          "name": "role",
          "type": "bytes32"
        },
        {
          "indexed": true,
          "internalType": "address",
          "name": "account",
          "type": "address"
        },
        {
          "indexed": true,
          "internalType": "address",
          "name": "sender",
          "type": "address"
        }
      ],
      "name": "RoleRevoked",
      "type": "event"
    },
    {
      "inputs": [],
      "name": "DEFAULT_ADMIN_ROLE",
      "outputs": [
        {
          "internalType": "bytes32",
          "name": "",
          "type": "bytes32"
        }
      ],
      "stateMutability": "view",
      "type": "function"
    },
    {
      "inputs": [],
      "name": "EXECUTOR_ROLE",
      "outputs": [
        {
          "internalType": "bytes32",
          "name": "",
          "type": "bytes32"
        }
      ],
      "stateMutability": "view",
      "type": "function"
    },
    {
      "inputs": [],
      "name": "aitToken",
      "outputs": [
        {
          "internalType": "contract IERC20",
          "name": "",
          "type": "address"
        }
      ],
      "stateMutability": "view",
      "type": "function"
    },
    {
      "inputs": [
        {
          "internalType": "address",
          "name": "to",
          "type": "address"
        },
        {
          "internalType": "uint256",
          "name": "amount",
          "type": "uint256"
        },
        {
          "internalType": "string",
          "name": "reason",
          "type": "string"
        }
      ],
      "name": "disburse",
      "outputs": [],
      "stateMutability": "nonpayable",
      "type": "function"
    },
    {
      "inputs": [],
      "name": "getBalance",
      "outputs": [
        {
          "internalType": "uint256",
          "name": "",
          "type": "uint256"
        }
      ],
      "stateMutability": "view",
      "type": "function"
    },
    {
      "inputs": [
        {
          "internalType": "bytes32",
          "name": "role",
          "type": "bytes32"
        }
      ],
      "name": "getRoleAdmin",
      "outputs": [
        {
          "internalType": "bytes32",
          "name": "",
          "type": "bytes32"
        }
      ],
      "stateMutability": "view",
      "type": "function"
    },
    {
      "inputs": [
        {
          "internalType": "bytes32",
          "name": "role",
          "type": "bytes32"
        },
        {
          "internalType": "address",
          "name": "account",
          "type": "address"
        }
      ],
      "name": "grantRole",
      "outputs": [],
      "stateMutability": "nonpayable",
      "type": "function"
    },
    {
      "inputs": [
        {
          "internalType": "bytes32",
          "name": "role",
          "type": "bytes32"
        },
        {
          "internalType": "address",
          "name": "account",
          "type": "address"
        }
      ],
      "name": "hasRole",
      "outputs": [
        {
          "internalType": "bool",
          "name": "",
          "type": "bool"
        }
      ],
      "stateMutability": "view",
      "type": "function"
    },
    {
      "inputs": [
        {
          "internalType": "bytes32",
          "name": "role",
          "type": "bytes32"
        },
        {
          "internalType": "address",
          "name": "callerConfirmation",
          "type": "address"
        }
      ],
      "name": "renounceRole",
      "outputs": [],
      "stateMutability": "nonpayable",
      "type": "function"
    },
    {
      "inputs": [
        {
          "internalType": "bytes32",
          "name": "role",
          "type": "bytes32"
        },
        {
          "internalType": "address",
          "name": "account",
          "type": "address"
        }
      ],
      "name": "revokeRole",
      "outputs": [],
      "stateMutability": "nonpayable",
      "type": "function"
    },
    {
      "inputs": [
        {
          "internalType": "bytes4",
          "name": "interfaceId",
          "type": "bytes4"
        }
      ],
      "name": "supportsInterface",
      "outputs": [
        {
          "internalType": "bool",
          "name": "",
          "type": "bool"
        }
      ],
      "stateMutability": "view",
      "type": "function"
    },
    {
      "stateMutability": "payable",
      "type": "receive"
    }
  ],
  "bytecode": "0x60a060405234801561001057600080fd5b50604051610cee380380610cee83398101604081905261002f91610146565b600180556001600160a01b03821660805261004b60008261007e565b506100767fd8aa0f3194971a2a116679f7c2090f6939c8d4e01a2a8d7e41d55e5351469e638261007e565b505050610179565b6000828152602081815260408083206001600160a01b038516845290915281205460ff16610120576000838152602081815260408083206001600160a01b03861684529091529020805460ff191660011790556100d83390565b6001600160a01b0316826001600160a01b0316847f2f8788117e7eff1d82e926ec794901d17c78024a50270940304540a733656f0d60405160405180910390a4506001610124565b5060005b92915050565b80516001600160a01b038116811461014157600080fd5b919050565b6000806040838503121561015957600080fd5b6101628361012a565b91506101706020840161012a565b90509250929050565b608051610b456101a960003960008181610266015281816102ef0152818161040501526104d30152610b456000f3fe6080604052600436106100a05760003560e01c80632f2ff15d116100645780632f2ff15d146101bf57806336568abe146101df57806391d14854146101ff578063a217fddf1461021f578063d547741f14610234578063e1859d731461025457600080fd5b806301ffc9a7146100e157806307bd02651461011657806312065fe014610158578063248a9ca31461016d57806326d79ce51461019d57600080fd5b366100dc5760405134815233907f8e47b87b0ef542cdfa1659c551d88bad38aa7f452d2bbb349ab7530dfec8be8f9060200160405180910390a2005b600080fd5b3480156100ed57600080fd5b506101016100fc36600461095d565b6102a0565b60405190151581526020015b60405180910390f35b34801561012257600080fd5b5061014a7fd8aa0f3194971a2a116679f7c2090f6939c8d4e01a2a8d7e41d55e5351469e6381565b60405190815260200161010d565b34801561016457600080fd5b5061014a6102d7565b34801561017957600080fd5b5061014a610188366004610987565b60009081526020819052604090206001015490565b3480156101a957600080fd5b506101bd6101b83660046109bc565b610367565b005b3480156101cb57600080fd5b506101bd6101da366004610a43565b61054f565b3480156101eb57600080fd5b506101bd6101fa366004610a43565b61057a565b34801561020b57600080fd5b5061010161021a366004610a43565b6105b2565b34801561022b57600080fd5b5061014a600081565b34801561024057600080fd5b506101bd61024f366004610a43565b6105db565b34801561026057600080fd5b506102887f000000000000000000000000000000000000000000000000000000000000000081565b6040516001600160a01b03909116815260200161010d565b60006001600160e01b03198216637965db0b60e01b14806102d157506301ffc9a760e01b6001600160e01b03198316145b92915050565b6040516370a0823160e01b81523060048201526000907f00000000000000000000000000000000000000000000000000000000000000006001600160a01b0316906370a0823190602401602060405180830381865afa15801561033e573d6000803e3d6000fd5b505050506040513d601f19601f820116820180604052508101906103629190610a6f565b905090565b7fd8aa0f3194971a2a116679f7c2090f6939c8d4e01a2a8d7e41d55e5351469e6361039181610600565b61039961060d565b600084116103ee5760405162461bcd60e51b815260206004820152601c60248201527f54726561737572793a20616d6f756e74206d757374206265203e20300000000060448201526064015b60405180910390fd5b6040516370a0823160e01b815230600482015284907f00000000000000000000000000000000000000000000000000000000000000006001600160a01b0316906370a0823190602401602060405180830381865afa158015610454573d6000803e3d6000fd5b505050506040513d601f19601f820116820180604052508101906104789190610a6f565b10156104c65760405162461bcd60e51b815260206004820152601c60248201527f54726561737572793a20696e73756666696369656e742066756e64730000000060448201526064016103e5565b6104fa6001600160a01b037f0000000000000000000000000000000000000000000000000000000000000000168686610637565b846001600160a01b03167f2ce2e253945537aa7d973276dc02985c341489198e30fa86a1ccc903e07deed085858560405161053793929190610a88565b60405180910390a261054860018055565b5050505050565b60008281526020819052604090206001015461056a81610600565b6105748383610689565b50505050565b6001600160a01b03811633146105a35760405163334bd91960e11b815260040160405180910390fd5b6105ad828261071b565b505050565b6000918252602082815260408084206001600160a01b0393909316845291905290205460ff1690565b6000828152602081905260409020600101546105f681610600565b610574838361071b565b61060a8133610786565b50565b60026001540361063057604051633ee5aeb560e01b815260040160405180910390fd5b6002600155565b604080516001600160a01b038416602482015260448082018490528251808303909101815260649091019091526020810180516001600160e01b031663a9059cbb60e01b1790526105ad9084906107c3565b600061069583836105b2565b610713576000838152602081815260408083206001600160a01b03861684529091529020805460ff191660011790556106cb3390565b6001600160a01b0316826001600160a01b0316847f2f8788117e7eff1d82e926ec794901d17c78024a50270940304540a733656f0d60405160405180910390a45060016102d1565b5060006102d1565b600061072783836105b2565b15610713576000838152602081815260408083206001600160a01b0386168085529252808320805460ff1916905551339286917ff6391f5c32d9c69d2a47ea670b442974b53935d1edc7fd64eb21e047a839171b9190a45060016102d1565b61079082826105b2565b6107bf5760405163e2517d3f60e01b81526001600160a01b0382166004820152602481018390526044016103e5565b5050565b60006107d86001600160a01b03841683610826565b905080516000141580156107fd5750808060200190518101906107fb9190610abe565b155b156105ad57604051635274afe760e01b81526001600160a01b03841660048201526024016103e5565b60606108348383600061083b565b9392505050565b6060814710156108605760405163cd78605960e01b81523060048201526024016103e5565b600080856001600160a01b0316848660405161087c9190610ae0565b60006040518083038185875af1925050503d80600081146108b9576040519150601f19603f3d011682016040523d82523d6000602084013e6108be565b606091505b50915091506108ce8683836108d8565b9695505050505050565b6060826108ed576108e882610934565b610834565b815115801561090457506001600160a01b0384163b155b1561092d57604051639996b31560e01b81526001600160a01b03851660048201526024016103e5565b5080610834565b8051156109445780518082602001fd5b604051630a12f52160e11b815260040160405180910390fd5b60006020828403121561096f57600080fd5b81356001600160e01b03198116811461083457600080fd5b60006020828403121561099957600080fd5b5035919050565b80356001600160a01b03811681146109b757600080fd5b919050565b600080600080606085870312156109d257600080fd5b6109db856109a0565b935060208501359250604085013567ffffffffffffffff808211156109ff57600080fd5b818701915087601f830112610a1357600080fd5b813581811115610a2257600080fd5b886020828501011115610a3457600080fd5b95989497505060200194505050565b60008060408385031215610a5657600080fd5b82359150610a66602084016109a0565b90509250929050565b600060208284031215610a8157600080fd5b5051919050565b83815260406020820152816040820152818360608301376000818301606090810191909152601f909201601f1916010192915050565b600060208284031215610ad057600080fd5b8151801515811461083457600080fd5b6000825160005b81811015610b015760208186018101518583015201610ae7565b50600092019182525091905056fea2646970667358221220f0412d20ea6e18e45b02f3ea17a61387ed8b55aac3bfaccd4808d72b3fa65dc564736f6c63430008140033",
  "linkReferences": {},
  "deployedLinkReferences": {}
}