{
  "_format": "hh-sol-artifact-1",
  "contractName": "AITToken",
  "sourceName": "contracts/AITToken.sol",
  "abi": [
    {
      "inputs": [
        {
          "internalType": "address",
          "name": "initialOwner",
          "type": "address"
        }
      ],
      "stateMutability": "nonpayable",
      "type": "constructor"
    },
    {
      "inputs": [],
      "name": "CheckpointUnorderedInsertion",
      "type": "error"
    },
    {
      "inputs": [],
      "name": "ECDSAInvalidSignature",
      "type": "error"
    },
    {
      "inputs": [
        {
          "internalType": "uint256",
          "name": "length",
          "type": "uint256"
        }
      ],
      "name": "ECDSAInvalidSignatureLength",
      "type": "error"
    },
    {
      "inputs": [
        {
          "internalType": "bytes32",
          "name": "s",
          "type": "bytes32"
        }
      ],
      "name": "ECDSAInvalidSignatureS",
      "type": "error"
    },
    {
      "inputs": [
        {
          "internalType": "uint256",
          "name": "increasedSupply",
          "type": "uint256"
        },
        {
          "internalType": "uint256",
          "name": "cap",
          "type": "uint256"
        }
      ],
      "name": "ERC20ExceededSafeSupply",
      "type": "error"
    },
    {
      "inputs": [
        {
          "internalType": "address",
          "name": "spender",
          "type": "address"
        },
        {
          "internalType": "uint256",
          "name": "allowance",
          "type": "uint256"
        },
        {
          "internalType": "uint256",
          "name": "needed",
          "type": "uint256"
        }
      ],
      "name": "ERC20InsufficientAllowance",
      "type": "error"
    },
    {
      "inputs": [
        {
          "internalType": "address",
          "name": "sender",
          "type": "address"
        },
        {
          "internalType": "uint256",
          "name": "balance",
          "type": "uint256"
        },
        {
          "internalType": "uint256",
          "name": "needed",
          "type": "uint256"
        }
      ],
      "name": "ERC20InsufficientBalance",
      "type": "error"
    },
    {
      "inputs": [
        {
          "internalType": "address",
          "name": "approver",
          "type": "address"
        }
      ],
      "name": "ERC20InvalidApprover",
      "type": "error"
    },
    {
      "inputs": [
        {
          "internalType": "address",
          "name": "receiver",
          "type": "address"
        }
      ],
      "name": "ERC20InvalidReceiver",
      "type": "error"
    },
    {
      "inputs": [
        {
          "internalType": "address",
          "name": "sender",
          "type": "address"
        }
      ],
      "name": "ERC20InvalidSender",
      "type": "error"
    },
    {
      "inputs": [
        {
          "internalType": "address",
          "name": "spender",
          "type": "address"
        }
      ],
      "name": "ERC20InvalidSpender",
      "type": "error"
    },
    {
      "inputs": [
        {
          "internalType": "uint256",
          "name": "deadline",
          "type": "uint256"
        }
      ],
      "name": "ERC2612ExpiredSignature",
      "type": "error"
    },
    {
      "inputs": [
        {
          "internalType": "address",
          "name": "signer",
          "type": "address"
        },
        {
          "internalType": "address",
          "name": "owner",
          "type": "address"
        }
      ],
      "name": "ERC2612InvalidSigner",
      "type": "error"
    },
    {
      "inputs": [
        {
          "internalType": "uint256",
          "name": "timepoint",
          "type": "uint256"
        },
        {
          "internalType": "uint48",
          "name": "clock",
          "type": "uint48"
        }
      ],
      "name": "ERC5805FutureLookup",
      "type": "error"
    },
    {
      "inputs": [],
      "name": "ERC6372InconsistentClock",
      "type": "error"
    },
    {
      "inputs": [
        {
          "internalType": "address",
          "name": "account",
          "type": "address"
        },
        {
          "internalType": "uint256",
          "name": "currentNonce",
          "type": "uint256"
        }
      ],
      "name": "InvalidAccountNonce",
      "type": "error"
    },
    {
      "inputs": [],
      "name": "InvalidShortString",
      "type": "error"
    },
    {
      "inputs": [
        {
          "internalType": "address",
          "name": "owner",
          "type": "address"
        }
      ],
      "name": "OwnableInvalidOwner",
      "type": "error"
    },
    {
      "inputs": [
        {
          "internalType": "address",
          "name": "account",
          "type": "address"
        }
      ],
      "name": "OwnableUnauthorizedAccount",
      "type": "error"
    },
    {
      "inputs": [
        {
          "internalType": "uint8",
          "name": "bits",
          "type": "uint8"
        },
        {
          "internalType": "uint256",
          "name": "value",
          "type": "uint256"
        }
      ],
      "name": "SafeCastOverflowedUintDowncast",
      "type": "error"
    },
    {
      "inputs": [
        {
          "internalType": "string",
          "name": "str",
          "type": "string"
        }
      ],
      "name": "StringTooLong",
      "type": "error"
    },
    {
      "inputs": [
        {
          "internalType": "uint256",
          "name": "expiry",
          "type": "uint256"
        }
      ],
      "name": "VotesExpiredSignature",
      "type": "error"
    },
    {
      "anonymous": false,
      "inputs": [
        {
          "indexed": true,
          "internalType": "address",
          "name": "owner",
          "type": "address"
        },
        {
          "indexed": true,
          "internalType": "address",
          "name": "spender",
          "type": "address"
        },
        {
          "indexed": false,
          "internalType": "uint256",
          "name": "value",
          "type": "uint256"
        }
      ],
      "name": "Approval",
      "type": "event"
    },
    {
      "anonymous": false,
      "inputs": [
        {
          "indexed": true,
          "internalType": "address",
          "name": "delegator",
          "type": "address"
        },
        {
          "indexed": true,
          "internalType": "address",
          "name": "fromDelegate",
          "type": "address"
        },
        {
          "indexed": true,
          "internalType": "address",
          "name": "toDelegate",
          "type": "address"
        }
      ],
      "name": "DelegateChanged",
      "type": "event"
    },
    {
      "anonymous": false,
      "inputs": [
        {
          "indexed": true,
          "internalType": "address",
          "name": "delegate",
          "type": "address"
        },
        {
          "indexed": false,
          "internalType": "uint256",
          "name": "previousVotes",
          "type": "uint256"
        },
        {
          "indexed": false,
          "internalType": "uint256",
          "name": "newVotes",
          "type": "uint256"
        }
      ],
      "name": "DelegateVotesChanged",
      "type": "event"
    },
    {
      "anonymous": false,
      "inputs": [],
      "name": "EIP712DomainChanged",
      "type": "event"
    },
    {
      "anonymous": false,
      "inputs": [
        {
          "indexed": true,
          "internalType": "address",
          "name": "previousOwner",
          "type": "address"
        },
        {
          "indexed": true,
          "internalType": "address",
          "name": "newOwner",
          "type": "address"
        }
      ],
      "name": "OwnershipTransferred",
      "type": "event"
    },
    {
      "anonymous": false,
      "inputs": [
        {
          "indexed": true,
          "internalType": "address",
          "name": "from",
          "type": "address"
        },
        {
          "indexed": true,
          "internalType": "address",
          "name": "to",
          "type": "address"
        },
        {
          "indexed": false,
          "internalType": "uint256",
          "name": "value",
          "type": "uint256"
        }
      ],
      "name": "Transfer",
      "type": "event"
    },
    {
      "inputs": [],
      "name": "CLOCK_MODE",
      "outputs": [
        {
          "internalType": "string",
          "name": "",
          "type": "string"
        }
      ],
      "stateMutability": "view",
      "type": "function"
    },
    {
      "inputs": [],
      "name": "DOMAIN_SEPARATOR",
      "outputs": [
        {
          "internalType": "bytes32",
          "name": "",
          "type": "bytes32"
        }
      ],
      "stateMutability": "view",
      "type": "function"
    },
    {
      "inputs": [],
      "name": "MAX_SUPPLY",
      "outputs": [
        {
          "internalType": "uint256",
          "name": "",
          "type": "uint256"
        }
      ],
      "stateMutability": "view",
      "type": "function"
    },
    {
      "inputs": [
        {
          "internalType": "address",
          "name": "owner",
          "type": "address"
        },
        {
          "internalType": "address",
          "name": "spender",
          "type": "address"
        }
      ],
      "name": "allowance",
      "outputs": [
        {
          "internalType": "uint256",
          "name": "",
          "type": "uint256"
        }
      ],
      "stateMutability": "view",
      "type": "function"
    },
    {
      "inputs": [
        {
          "internalType": "address",
          "name": "spender",
          "type": "address"
        },
        {
          "internalType": "uint256",
          "name": "value",
          "type": "uint256"
        }
      ],
      "name": "approve",
      "outputs": [
        {
          "internalType": "bool",
          "name": "",
          "type": "bool"
        }
      ],
      "stateMutability": "nonpayable",
      "type": "function"
    },
    {
      "inputs": [
        {
          "internalType": "address",
          "name": "account",
          "type": "address"
        }
      ],
      "name": "balanceOf",
      "outputs": [
        {
          "internalType": "uint256",
          "name": "",
          "type": "uint256"
        }
      ],
      "stateMutability": "view",
      "type": "function"
    },
    {
      "inputs": [
        {
          "internalType": "address",
          "name": "account",
          "type": "address"
        },
        {
          "internalType": "uint32",
          "name": "pos",
          "type": "uint32"
        }
      ],
      "name": "checkpoints",
      "outputs": [
        {
          "components": [
            {
              "internalType": "uint48",
              "name": "_key",
              "type": "uint48"
            },
            {
              "internalType": "uint208",
              "name": "_value",
              "type": "uint208"
            }
          ],
          "internalType": "struct Checkpoints.Checkpoint208",
          "name": "",
          "type": "tuple"
        }
      ],
      "stateMutability": "view",
      "type": "function"
    },
    {
      "inputs": [],
      "name": "clock",
      "outputs": [
        {
          "internalType": "uint48",
          "name": "",
          "type": "uint48"
        }
      ],
      "stateMutability": "view",
      "type": "function"
    },
    {
      "inputs": [],
      "name": "decimals",
      "outputs": [
        {
          "internalType": "uint8",
          "name": "",
          "type": "uint8"
        }
      ],
      "stateMutability": "view",
      "type": "function"
    },
    {
      "inputs": [
        {
          "internalType": "address",
          "name": "delegatee",
          "type": "address"
        }
      ],
      "name": "delegate",
      "outputs": [],
      "stateMutability": "nonpayable",
      "type": "function"
    },
    {
      "inputs": [
        {
          "internalType": "address",
          "name": "delegatee",
          "type": "address"
        },
        {
          "internalType": "uint256",
          "name": "nonce",
          "type": "uint256"
        },
        {
          "internalType": "uint256",
          "name": "expiry",
          "type": "uint256"
        },
        {
          "internalType": "uint8",
          "name": "v",
          "type": "uint8"
        },
        {
          "internalType": "bytes32",
          "name": "r",
          "type": "bytes32"
        },
        {
          "internalType": "bytes32",
          "name": "s",
          "type": "bytes32"
        }
      ],
      "name": "delegateBySig",
      "outputs": [],
      "stateMutability": "nonpayable",
      "type": "function"
    },
    {
      "inputs": [
        {
          "internalType": "address",
          "name": "account",
          "type": "address"
        }
      ],
      "name": "delegates",
      "outputs": [
        {
          "internalType": "address",
          "name": "",
          "type": "address"
        }
      ],
      "stateMutability": "view",
      "type": "function"
    },
    {
      "inputs": [],
      "name": "eip712Domain",
      "outputs": [
        {
          "internalType": "bytes1",
          "name": "fields",
          "type": "bytes1"
        },
        {
          "internalType": "string",
          "name": "name",
          "type": "string"
        },
        {
          "internalType": "string",
          "name": "version",
          "type": "string"
        },
        {
          "internalType": "uint256",
          "name": "chainId",
          "type": "uint256"
        },
        {
          "internalType": "address",
          "name": "verifyingContract",
          "type": "address"
        },
        {
          "internalType": "bytes32",
          "name": "salt",
          "type": "bytes32"
        },
        {
          "internalType": "uint256[]",
          "name": "extensions",
          "type": "uint256[]"
        }
      ],
      "stateMutability": "view",
      "type": "function"
    },
    {
      "inputs": [
        {
          "internalType": "uint256",
          "name": "timepoint",
          "type": "uint256"
        }
      ],
      "name": "getPastTotalSupply",
      "outputs": [
        {
          "internalType": "uint256",
          "name": "",
          "type": "uint256"
        }
      ],
      "stateMutability": "view",
      "type": "function"
    },
    {
      "inputs": [
        {
          "internalType": "address",
          "name": "account",
          "type": "address"
        },
        {
          "internalType": "uint256",
          "name": "timepoint",
          "type": "uint256"
        }
      ],
      "name": "getPastVotes",
      "outputs": [
        {
          "internalType": "uint256",
          "name": "",
          "type": "uint256"
        }
      ],
      "stateMutability": "view",
      "type": "function"
    },
    {
      "inputs": [
        {
          "internalType": "address",
          "name": "account",
          "type": "address"
        }
      ],
      "name": "getVotes",
      "outputs": [
        {
          "internalType": "uint256",
          "name": "",
          "type": "uint256"
        }
      ],
      "stateMutability": "view",
      "type": "function"
    },
    {
      "inputs": [
        {
          "internalType": "address",
          "name": "to",
          "type": "address"
        },
        {
          "internalType": "uint256",
          "name": "amount",
          "type": "uint256"
        }
      ],
      "name": "mint",
      "outputs": [],
      "stateMutability": "nonpayable",
      "type": "function"
    },
    {
      "inputs": [],
      "name": "name",
      "outputs": [
        {
          "internalType": "string",
          "name": "",
          "type": "string"
        }
      ],
      "stateMutability": "view",
      "type": "function"
    },
    {
      "inputs": [
        {
          "internalType": "address",
          "name": "owner",
          "type": "address"
        }
      ],
      "name": "nonces",
      "outputs": [
        {
          "internalType": "uint256",
          "name": "",
          "type": "uint256"
        }
      ],
      "stateMutability": "view",
      "type": "function"
    },
    {
      "inputs": [
        {
          "internalType": "address",
          "name": "account",
          "type": "address"
        }
      ],
      "name": "numCheckpoints",
      "outputs": [
        {
          "internalType": "uint32",
          "name": "",
          "type": "uint32"
        }
      ],
      "stateMutability": "view",
      "type": "function"
    },
    {
      "inputs": [],
      "name": "owner",
      "outputs": [
        {
          "internalType": "address",
          "name": "",
          "type": "address"
        }
      ],
      "stateMutability": "view",
      "type": "function"
    },
    {
      "inputs": [
        {
          "internalType": "address",
          "name": "owner",
          "type": "address"
        },
        {
          "internalType": "address",
          "name": "spender",
          "type": "address"
        },
        {
          "internalType": "uint256",
          "name": "value",
          "type": "uint256"
        },
        {
          "internalType": "uint256",
          "name": "deadline",
          "type": "uint256"
        },
        {
          "internalType": "uint8",
          "name": "v",
          "type": "uint8"
        },
        {
          "internalType": "bytes32",
          "name": "r",
          "type": "bytes32"
        },
        {
          "internalType": "bytes32",
          "name": "s",
          "type": "bytes32"
        }
      ],
      "name": "permit",
      "outputs": [],
      "stateMutability": "nonpayable",
      "type": "function"
    },
    {
      "inputs": [],
      "name": "renounceOwnership",
      "outputs": [],
      "stateMutability": "nonpayable",
      "type": "function"
    },
    {
      "inputs": [],
      "name": "symbol",
      "outputs": [
        {
          "internalType": "string",
          "name": "",
          "type": "string"
        }
      ],
      "stateMutability": "view",
      "type": "function"
    },
    {
      "inputs": [],
      "name": "totalSupply",
      "outputs": [
        {
          "internalType": "uint256",
          "name": "",
          "type": "uint256"
        }
      ],
      "stateMutability": "view",
      "type": "function"
    },
    {
      "inputs": [
        {
          "internalType": "address",
          "name": "to",
          "type": "address"
        },
        {
          "internalType": "uint256",
          "name": "value",
          "type": "uint256"
        }
      ],
      "name": "transfer",
      "outputs": [
        {
          "internalType": "bool",
          "name": "",
          "type": "bool"
        }
      ],
      "stateMutability": "nonpayable",
      "type": "function"
    },
    {
      "inputs": [
        {
          "internalType": "address",
          "name": "from",
          "type": "address"
        },
        {
          "internalType": "address",
          "name": "to",
          "type": "address"
        },
        {
          "internalType": "uint256",
          "name": "value",
          "type": "uint256"
        }
      ],
      "name": "transferFrom",
      "outputs": [
        {
          "internalType": "bool",
          "name": "",
          "type": "bool"
        }
      ],
      "stateMutability": "nonpayable",
      "type": "function"
    },
    {
      "inputs": [
        {
          "internalType": "address",
          "name": "newOwner",
          "type": "address"
        }
      ],
      "name": "transferOwnership",
      "outputs": [],
      "stateMutability": "nonpayable",
      "type": "function"
    }
  ],
  "bytecode": "0x6101606040523480156200001257600080fd5b5060405162002d1338038062002d1383398101604081905262000035916200098e565b806040518060400160405280600f81526020016e20a4aa37b7b6243ab1102a37b5b2b760891b81525080604051806040016040528060018152602001603160f81b8152506040518060400160405280600f81526020016e20a4aa37b7b6243ab1102a37b5b2b760891b8152506040518060400160405280600381526020016210525560ea1b8152508160039081620000ce919062000a5d565b506004620000dd828262000a5d565b50620000ef91508390506005620001f1565b6101205262000100816006620001f1565b61014052815160208084019190912060e052815190820120610100524660a0526200018e60e05161010051604080517f8b73c3c69bb8fe3d512ecc4cf759cc79239f7b179b0ffacaa9a75d522b39400f60208201529081019290925260608201524660808201523060a082015260009060c00160405160208183030381529060405280519060200120905090565b60805250503060c052506001600160a01b038116620001c857604051631e4fbdf760e01b8152600060048201526024015b60405180910390fd5b620001d3816200022a565b50620001ea8169152d02c7e14af68000006200027c565b5062000c2d565b600060208351101562000211576200020983620002ba565b905062000224565b816200021e848262000a5d565b5060ff90505b92915050565b600b80546001600160a01b038381166001600160a01b0319831681179093556040519116919082907f8be0079c531659141344cd1fd0a4f28419497f9722a3daafe3b4186f6b6457e090600090a35050565b6001600160a01b038216620002a85760405163ec442f0560e01b815260006004820152602401620001bf565b620002b660008383620002fd565b5050565b600080829050601f81511115620002e8578260405163305a27a960e01b8152600401620001bf919062000b29565b8051620002f58262000b79565b179392505050565b6200030a8383836200030f565b505050565b6200031c8383836200037e565b6001600160a01b038316620003715760006200033760025490565b90506001600160d01b03808211156200036e57604051630e58ae9360e11b81526004810183905260248101829052604401620001bf565b50505b6200030a838383620004b1565b6001600160a01b038316620003ad578060026000828254620003a1919062000bb4565b90915550620004219050565b6001600160a01b03831660009081526020819052604090205481811015620004025760405163391434e360e21b81526001600160a01b03851660048201526024810182905260448101839052606401620001bf565b6001600160a01b03841660009081526020819052604090209082900390555b6001600160a01b0382166200043f576002805482900390556200045e565b6001600160a01b03821660009081526020819052604090208054820190555b816001600160a01b0316836001600160a01b03167fddf252ad1be2c89b69c2b068fc378daa952ba7f163c4a11628f55a4df523b3ef83604051620004a491815260200190565b60405180910390a3505050565b6001600160a01b038316620004e657620004e3600a62000a716200054960201b17620004dd846200055e565b62000598565b50505b6001600160a01b038216620005155762000512600a62000a7d620005d560201b17620004dd846200055e565b50505b6001600160a01b038381166000908152600860205260408082205485841683529120546200030a92918216911683620005e3565b600062000557828462000bca565b9392505050565b60006001600160d01b0382111562000594576040516306dfcc6560e41b815260d0600482015260248101839052604401620001bf565b5090565b600080620005c8620005a96200074a565b620005bf620005b8886200075b565b868860201c565b879190620007aa565b915091505b935093915050565b600062000557828462000bf4565b816001600160a01b0316836001600160a01b031614158015620006065750600081115b156200030a576001600160a01b03831615620006a9576001600160a01b038316600090815260096020908152604082208291620006549190620005d5901b62000a7d17620004dd866200055e565b6001600160d01b031691506001600160d01b03169150846001600160a01b031660008051602062002cf383398151915283836040516200069e929190918252602082015260400190565b60405180910390a250505b6001600160a01b038216156200030a576001600160a01b038216600090815260096020908152604082208291620006f1919062000549901b62000a7117620004dd866200055e565b6001600160d01b031691506001600160d01b03169150836001600160a01b031660008051602062002cf383398151915283836040516200073b929190918252602082015260400190565b60405180910390a25050505050565b600062000756620007ba565b905090565b80546000908015620007a15762000787836200077960018462000c17565b600091825260209091200190565b54660100000000000090046001600160d01b031662000557565b60009392505050565b600080620005c8858585620007c7565b6000620007564362000959565b825460009081908015620008fa576000620007e9876200077960018562000c17565b60408051808201909152905465ffffffffffff80821680845266010000000000009092046001600160d01b0316602084015291925090871610156200084157604051632520601d60e01b815260040160405180910390fd5b805165ffffffffffff80881691160362000895578462000868886200077960018662000c17565b80546001600160d01b039290921666010000000000000265ffffffffffff909216919091179055620008e9565b6040805180820190915265ffffffffffff80881682526001600160d01b0380881660208085019182528b54600181018d5560008d815291909120945191519092166601000000000000029216919091179101555b602001519250839150620005cd9050565b50506040805180820190915265ffffffffffff80851682526001600160d01b0380851660208085019182528854600181018a5560008a8152918220955192519093166601000000000000029190931617920191909155905081620005cd565b600065ffffffffffff82111562000594576040516306dfcc6560e41b81526030600482015260248101839052604401620001bf565b600060208284031215620009a157600080fd5b81516001600160a01b03811681146200055757600080fd5b634e487b7160e01b600052604160045260246000fd5b600181811c90821680620009e457607f821691505b60208210810362000a0557634e487b7160e01b600052602260045260246000fd5b50919050565b601f8211156200030a57600081815260208120601f850160051c8101602086101562000a345750805b601f850160051c820191505b8181101562000a555782815560010162000a40565b505050505050565b81516001600160401b0381111562000a795762000a79620009b9565b62000a918162000a8a8454620009cf565b8462000a0b565b602080601f83116001811462000ac9576000841562000ab05750858301515b600019600386901b1c1916600185901b17855562000a55565b600085815260208120601f198616915b8281101562000afa5788860151825594840194600190910190840162000ad9565b508582101562000b195787850151600019600388901b60f8161c191681555b5050505050600190811b01905550565b600060208083528351808285015260005b8181101562000b585785810183015185820160400152820162000b3a565b506000604082860101526040601f19601f8301168501019250505092915050565b8051602080830151919081101562000a055760001960209190910360031b1b16919050565b634e487b7160e01b600052601160045260246000fd5b8082018082111562000224576200022462000b9e565b6001600160d01b0381811683821601908082111562000bed5762000bed62000b9e565b5092915050565b6001600160d01b0382811682821603908082111562000bed5762000bed62000b9e565b8181038181111562000224576200022462000b9e565b60805160a05160c05160e05161010051610120516101405161206b62000c886000396000610f3601526000610f0901526000610c5201526000610c2a01526000610b8501526000610baf01526000610bd9015261206b6000f3fe608060405234801561001057600080fd5b50600436106101c45760003560e01c8063715018a6116100f95780639ab24eb011610097578063d505accf11610071578063d505accf146103e9578063dd62ed3e146103fc578063f1127ed814610435578063f2fde38b1461047457600080fd5b80639ab24eb0146103b0578063a9059cbb146103c3578063c3cda520146103d657600080fd5b80638da5cb5b116100d35780638da5cb5b146103655780638e539e8c1461037657806391ddadf41461038957806395d89b41146103a857600080fd5b8063715018a61461032f5780637ecebe001461033757806384b0196e1461034a57600080fd5b80633a46b1a811610166578063587cde1e11610140578063587cde1e146102875780635c19a95c146102cb5780636fcfff45146102de57806370a082311461030657600080fd5b80633a46b1a81461025757806340c10f191461026a5780634bf5d7e91461027f57600080fd5b806323b872dd116101a257806323b872dd1461021c578063313ce5671461022f57806332cb6b0c1461023e5780633644e5151461024f57600080fd5b806306fdde03146101c9578063095ea7b3146101e757806318160ddd1461020a575b600080fd5b6101d1610487565b6040516101de9190611c6f565b60405180910390f35b6101fa6101f5366004611c9e565b610519565b60405190151581526020016101de565b6002545b6040519081526020016101de565b6101fa61022a366004611cc8565b610533565b604051601281526020016101de565b61020e69d3c21bcecceda100000081565b61020e610557565b61020e610265366004611c9e565b610566565b61027d610278366004611c9e565b6105ec565b005b6101d1610663565b6102b3610295366004611d04565b6001600160a01b039081166000908152600860205260409020541690565b6040516001600160a01b0390911681526020016101de565b61027d6102d9366004611d04565b6106db565b6102f16102ec366004611d04565b6106e6565b60405163ffffffff90911681526020016101de565b61020e610314366004611d04565b6001600160a01b031660009081526020819052604090205490565b61027d6106f1565b61020e610345366004611d04565b610705565b610352610710565b6040516101de9796959493929190611d1f565b600b546001600160a01b03166102b3565b61020e610384366004611db5565b610756565b6103916107c0565b60405165ffffffffffff90911681526020016101de565b6101d16107ca565b61020e6103be366004611d04565b6107d9565b6101fa6103d1366004611c9e565b610809565b61027d6103e4366004611ddf565b610817565b61027d6103f7366004611e37565b6108d4565b61020e61040a366004611ea1565b6001600160a01b03918216600090815260016020908152604080832093909416825291909152205490565b610448610443366004611ed4565b610a0e565b60408051825165ffffffffffff1681526020928301516001600160d01b031692810192909252016101de565b61027d610482366004611d04565b610a33565b60606003805461049690611f14565b80601f01602080910402602001604051908101604052809291908181526020018280546104c290611f14565b801561050f5780601f106104e45761010080835404028352916020019161050f565b820191906000526020600020905b8154815290600101906020018083116104f257829003601f168201915b5050505050905090565b600033610527818585610a89565b60019150505b92915050565b600033610541858285610a9b565b61054c858585610b19565b506001949350505050565b6000610561610b78565b905090565b6000806105716107c0565b90508065ffffffffffff1683106105b157604051637669fc0f60e11b81526004810184905265ffffffffffff821660248201526044015b60405180910390fd5b6105db6105bd84610ca3565b6001600160a01b038616600090815260096020526040902090610cda565b6001600160d01b0316949350505050565b6105f4610d90565b69d3c21bcecceda10000008161060960025490565b6106139190611f64565b11156106555760405162461bcd60e51b81526020600482015260116024820152701052550e8818d85c08195e18d959591959607a1b60448201526064016105a8565b61065f8282610dbd565b5050565b606061066d610df3565b65ffffffffffff1661067d6107c0565b65ffffffffffff16146106a3576040516301bfc1c560e61b815260040160405180910390fd5b5060408051808201909152601d81527f6d6f64653d626c6f636b6e756d6265722666726f6d3d64656661756c74000000602082015290565b3361065f8183610dfe565b600061052d82610e70565b6106f9610d90565b6107036000610e92565b565b600061052d82610ee4565b600060608060008060006060610724610f02565b61072c610f2f565b60408051600080825260208201909252600f60f81b9b939a50919850469750309650945092509050565b6000806107616107c0565b90508065ffffffffffff16831061079c57604051637669fc0f60e11b81526004810184905265ffffffffffff821660248201526044016105a8565b6107b06107a884610ca3565b600a90610cda565b6001600160d01b03169392505050565b6000610561610df3565b60606004805461049690611f14565b6001600160a01b03811660009081526009602052604081206107fa90610f5c565b6001600160d01b031692915050565b600033610527818585610b19565b8342111561083b57604051632341d78760e11b8152600481018590526024016105a8565b604080517fe48329057bfd03d55e49b547132e39cffd9c1820ad7b9d4c5307691425d15adf60208201526001600160a01b0388169181019190915260608101869052608081018590526000906108b5906108ad9060a00160405160208183030381529060405280519060200120610f95565b858585610fc2565b90506108c18187610ff0565b6108cb8188610dfe565b50505050505050565b834211156108f85760405163313c898160e11b8152600481018590526024016105a8565b60007f6e71edae12b1b97f4d1f60370fef10105fa2faae0126114a169c64845d6126c98888886109458c6001600160a01b0316600090815260076020526040902080546001810190915590565b6040805160208101969096526001600160a01b0394851690860152929091166060840152608083015260a082015260c0810186905260e00160405160208183030381529060405280519060200120905060006109a082610f95565b905060006109b082878787610fc2565b9050896001600160a01b0316816001600160a01b0316146109f7576040516325c0072360e11b81526001600160a01b0380831660048301528b1660248201526044016105a8565b610a028a8a8a610a89565b50505050505050505050565b6040805180820190915260008082526020820152610a2c8383611043565b9392505050565b610a3b610d90565b6001600160a01b038116610a6557604051631e4fbdf760e01b8152600060048201526024016105a8565b610a6e81610e92565b50565b6000610a2c8284611f77565b6000610a2c8284611f9e565b610a968383836001611079565b505050565b6001600160a01b038381166000908152600160209081526040808320938616835292905220546000198114610b135781811015610b0457604051637dc7a0d960e11b81526001600160a01b038416600482015260248101829052604481018390526064016105a8565b610b1384848484036000611079565b50505050565b6001600160a01b038316610b4357604051634b637e8f60e11b8152600060048201526024016105a8565b6001600160a01b038216610b6d5760405163ec442f0560e01b8152600060048201526024016105a8565b610a9683838361114e565b6000306001600160a01b037f000000000000000000000000000000000000000000000000000000000000000016148015610bd157507f000000000000000000000000000000000000000000000000000000000000000046145b15610bfb57507f000000000000000000000000000000000000000000000000000000000000000090565b610561604080517f8b73c3c69bb8fe3d512ecc4cf759cc79239f7b179b0ffacaa9a75d522b39400f60208201527f0000000000000000000000000000000000000000000000000000000000000000918101919091527f000000000000000000000000000000000000000000000000000000000000000060608201524660808201523060a082015260009060c00160405160208183030381529060405280519060200120905090565b600065ffffffffffff821115610cd6576040516306dfcc6560e41b815260306004820152602481018390526044016105a8565b5090565b815460009081816005811115610d39576000610cf584611159565b610cff9085611fbe565b60008881526020902090915081015465ffffffffffff9081169087161015610d2957809150610d37565b610d34816001611f64565b92505b505b6000610d4787878585611241565b90508015610d8257610d6c87610d5e600184611fbe565b600091825260209091200190565b54600160301b90046001600160d01b0316610d85565b60005b979650505050505050565b600b546001600160a01b031633146107035760405163118cdaa760e01b81523360048201526024016105a8565b6001600160a01b038216610de75760405163ec442f0560e01b8152600060048201526024016105a8565b61065f6000838361114e565b600061056143610ca3565b6001600160a01b0382811660008181526008602052604080822080548686166001600160a01b0319821681179092559151919094169392849290917f3134e8a2e6d97e929a7e54011ea5485d7d196dd5f0ba4d4ef95803e8e3fc257f9190a4610a968183610e6b866112a3565b6112c1565b6001600160a01b03811660009081526009602052604081205461052d9061142d565b600b80546001600160a01b038381166001600160a01b0319831681179093556040519116919082907f8be0079c531659141344cd1fd0a4f28419497f9722a3daafe3b4186f6b6457e090600090a35050565b6001600160a01b03811660009081526007602052604081205461052d565b60606105617f0000000000000000000000000000000000000000000000000000000000000000600561145e565b60606105617f0000000000000000000000000000000000000000000000000000000000000000600661145e565b80546000908015610f8c57610f7683610d5e600184611fbe565b54600160301b90046001600160d01b0316610a2c565b60009392505050565b600061052d610fa2610b78565b8360405161190160f01b8152600281019290925260228201526042902090565b600080600080610fd488888888611509565b925092509250610fe482826115d8565b50909695505050505050565b6001600160a01b0382166000908152600760205260409020805460018101909155818114610a96576040516301d4b62360e61b81526001600160a01b0384166004820152602481018290526044016105a8565b60408051808201909152600080825260208201526001600160a01b0383166000908152600960205260409020610a2c9083611691565b6001600160a01b0384166110a35760405163e602df0560e01b8152600060048201526024016105a8565b6001600160a01b0383166110cd57604051634a1406b160e11b8152600060048201526024016105a8565b6001600160a01b0380851660009081526001602090815260408083209387168352929052208290558015610b1357826001600160a01b0316846001600160a01b03167f8c5be1e5ebec7d5bd14f71427d1e84f3dd0314c0f7b2291e5b200ac8c7c3b9258460405161114091815260200190565b60405180910390a350505050565b610a96838383611701565b60008160000361116b57506000919050565b6000600161117884611768565b901c6001901b9050600181848161119157611191611fd1565b048201901c905060018184816111a9576111a9611fd1565b048201901c905060018184816111c1576111c1611fd1565b048201901c905060018184816111d9576111d9611fd1565b048201901c905060018184816111f1576111f1611fd1565b048201901c9050600181848161120957611209611fd1565b048201901c9050600181848161122157611221611fd1565b048201901c9050610a2c8182858161123b5761123b611fd1565b046117fc565b60005b8183101561129b5760006112588484611812565b60008781526020902090915065ffffffffffff86169082015465ffffffffffff16111561128757809250611295565b611292816001611f64565b93505b50611244565b509392505050565b6001600160a01b03811660009081526020819052604081205461052d565b816001600160a01b0316836001600160a01b0316141580156112e35750600081115b15610a96576001600160a01b0383161561138b576001600160a01b0383166000908152600960205260408120819061132690610a7d6113218661182d565b611861565b6001600160d01b031691506001600160d01b03169150846001600160a01b03167fdec2bacdd2f05b59de34da9b523dff8be42e5e38e818c82fdb0bae774387a7248383604051611380929190918252602082015260400190565b60405180910390a250505b6001600160a01b03821615610a96576001600160a01b038216600090815260096020526040812081906113c490610a716113218661182d565b6001600160d01b031691506001600160d01b03169150836001600160a01b03167fdec2bacdd2f05b59de34da9b523dff8be42e5e38e818c82fdb0bae774387a724838360405161141e929190918252602082015260400190565b60405180910390a25050505050565b600063ffffffff821115610cd6576040516306dfcc6560e41b815260206004820152602481018390526044016105a8565b606060ff8314611478576114718361189a565b905061052d565b81805461148490611f14565b80601f01602080910402602001604051908101604052809291908181526020018280546114b090611f14565b80156114fd5780601f106114d2576101008083540402835291602001916114fd565b820191906000526020600020905b8154815290600101906020018083116114e057829003601f168201915b5050505050905061052d565b600080807f7fffffffffffffffffffffffffffffff5d576e7357a4501ddfe92f46681b20a084111561154457506000915060039050826115ce565b604080516000808252602082018084528a905260ff891692820192909252606081018790526080810186905260019060a0016020604051602081039080840390855afa158015611598573d6000803e3d6000fd5b5050604051601f1901519150506001600160a01b0381166115c4575060009250600191508290506115ce565b9250600091508190505b9450945094915050565b60008260038111156115ec576115ec611fe7565b036115f5575050565b600182600381111561160957611609611fe7565b036116275760405163f645eedf60e01b815260040160405180910390fd5b600282600381111561163b5761163b611fe7565b0361165c5760405163fce698f760e01b8152600481018290526024016105a8565b600382600381111561167057611670611fe7565b0361065f576040516335e2f38360e21b8152600481018290526024016105a8565b6040805180820190915260008082526020820152826000018263ffffffff16815481106116c0576116c0611ffd565b60009182526020918290206040805180820190915291015465ffffffffffff81168252600160301b90046001600160d01b0316918101919091529392505050565b61170c8383836118d9565b6001600160a01b03831661175d57600061172560025490565b90506001600160d01b038082111561175a57604051630e58ae9360e11b815260048101839052602481018290526044016105a8565b50505b610a96838383611a03565b600080608083901c1561177d57608092831c92015b604083901c1561178f57604092831c92015b602083901c156117a157602092831c92015b601083901c156117b357601092831c92015b600883901c156117c557600892831c92015b600483901c156117d757600492831c92015b600283901c156117e957600292831c92015b600183901c1561052d5760010192915050565b600081831061180b5781610a2c565b5090919050565b60006118216002848418612013565b610a2c90848416611f64565b60006001600160d01b03821115610cd6576040516306dfcc6560e41b815260d06004820152602481018390526044016105a8565b60008061188d61186f6107c0565b61188561187b88610f5c565b868863ffffffff16565b879190611a79565b915091505b935093915050565b606060006118a783611a87565b604080516020808252818301909252919250600091906020820181803683375050509182525060208101929092525090565b6001600160a01b0383166119045780600260008282546118f99190611f64565b909155506119769050565b6001600160a01b038316600090815260208190526040902054818110156119575760405163391434e360e21b81526001600160a01b038516600482015260248101829052604481018390526064016105a8565b6001600160a01b03841660009081526020819052604090209082900390555b6001600160a01b038216611992576002805482900390556119b1565b6001600160a01b03821660009081526020819052604090208054820190555b816001600160a01b0316836001600160a01b03167fddf252ad1be2c89b69c2b068fc378daa952ba7f163c4a11628f55a4df523b3ef836040516119f691815260200190565b60405180910390a3505050565b6001600160a01b038316611a2557611a22600a610a716113218461182d565b50505b6001600160a01b038216611a4757611a44600a610a7d6113218461182d565b50505b6001600160a01b03838116600090815260086020526040808220548584168352912054610a96929182169116836112c1565b60008061188d858585611aaf565b600060ff8216601f81111561052d57604051632cd44ac360e21b815260040160405180910390fd5b825460009081908015611bce576000611acd87610d5e600185611fbe565b60408051808201909152905465ffffffffffff808216808452600160301b9092046001600160d01b031660208401529192509087161015611b2157604051632520601d60e01b815260040160405180910390fd5b805165ffffffffffff808816911603611b6d5784611b4488610d5e600186611fbe565b80546001600160d01b0392909216600160301b0265ffffffffffff909216919091179055611bbe565b6040805180820190915265ffffffffffff80881682526001600160d01b0380881660208085019182528b54600181018d5560008d81529190912094519151909216600160301b029216919091179101555b6020015192508391506118929050565b50506040805180820190915265ffffffffffff80851682526001600160d01b0380851660208085019182528854600181018a5560008a815291822095519251909316600160301b029190931617920191909155905081611892565b6000815180845260005b81811015611c4f57602081850181015186830182015201611c33565b506000602082860101526020601f19601f83011685010191505092915050565b602081526000610a2c6020830184611c29565b80356001600160a01b0381168114611c9957600080fd5b919050565b60008060408385031215611cb157600080fd5b611cba83611c82565b946020939093013593505050565b600080600060608486031215611cdd57600080fd5b611ce684611c82565b9250611cf460208501611c82565b9150604084013590509250925092565b600060208284031215611d1657600080fd5b610a2c82611c82565b60ff60f81b881681526000602060e081840152611d3f60e084018a611c29565b8381036040850152611d51818a611c29565b606085018990526001600160a01b038816608086015260a0850187905284810360c0860152855180825283870192509083019060005b81811015611da357835183529284019291840191600101611d87565b50909c9b505050505050505050505050565b600060208284031215611dc757600080fd5b5035919050565b803560ff81168114611c9957600080fd5b60008060008060008060c08789031215611df857600080fd5b611e0187611c82565b95506020870135945060408701359350611e1d60608801611dce565b92506080870135915060a087013590509295509295509295565b600080600080600080600060e0888a031215611e5257600080fd5b611e5b88611c82565b9650611e6960208901611c82565b95506040880135945060608801359350611e8560808901611dce565b925060a0880135915060c0880135905092959891949750929550565b60008060408385031215611eb457600080fd5b611ebd83611c82565b9150611ecb60208401611c82565b90509250929050565b60008060408385031215611ee757600080fd5b611ef083611c82565b9150602083013563ffffffff81168114611f0957600080fd5b809150509250929050565b600181811c90821680611f2857607f821691505b602082108103611f4857634e487b7160e01b600052602260045260246000fd5b50919050565b634e487b7160e01b600052601160045260246000fd5b8082018082111561052d5761052d611f4e565b6001600160d01b03818116838216019080821115611f9757611f97611f4e565b5092915050565b6001600160d01b03828116828216039080821115611f9757611f97611f4e565b8181038181111561052d5761052d611f4e565b634e487b7160e01b600052601260045260246000fd5b634e487b7160e01b600052602160045260246000fd5b634e487b7160e01b600052603260045260246000fd5b60008261203057634e487b7160e01b600052601260045260246000fd5b50049056fea26469706673582212205214210d95c800334f6ae2575c4497e3698be43de8cdb24ea32b3456c5b5917364736f6c63430008140033dec2bacdd2f05b59de34da9b523dff8be42e5e38e818c82fdb0bae774387a724",
  "linkReferences": {},
  "deployedLinkReferences": {}
}