{
  "_format": "hh-sol-artifact-1",
  "contractName": "DAOGovernance",
  "sourceName": "contracts/DAOGovernance.sol",
  "abi": [
    {
      "inputs": [
        {
          "internalType": "contract IVotes",
          "name": "_token",
          "type": "address"
        },
        {
          "internalType": "contract TimelockController",
          "name": "_timelock",
          "type": "address"
        }
      ],
      "stateMutability": "nonpayable",
      "type": "constructor"
    },
    {
      "inputs": [],
      "name": "CheckpointUnorderedInsertion",
      "type": "error"
    },
    {
      "inputs": [],
      "name": "FailedInnerCall",
      "type": "error"
    },
    {
      "inputs": [
        {
          "internalType": "address",
          "name": "voter",
          "type": "address"
        }
      ],
      "name": "GovernorAlreadyCastVote",
      "type": "error"
    },
    {
      "inputs": [
        {
          "internalType": "uint256",
          "name": "proposalId",
          "type": "uint256"
        }
      ],
      "name": "GovernorAlreadyQueuedProposal",
      "type": "error"
    },
    {
      "inputs": [],
      "name": "GovernorDisabledDeposit",
      "type": "error"
    },
    {
      "inputs": [
        {
          "internalType": "address",
          "name": "proposer",
          "type": "address"
        },
        {
          "internalType": "uint256",
          "name": "votes",
          "type": "uint256"
        },
        {
          "internalType": "uint256",
          "name": "threshold",
          "type": "uint256"
        }
      ],
      "name": "GovernorInsufficientProposerVotes",
      "type": "error"
    },
    {
      "inputs": [
        {
          "internalType": "uint256",
          "name": "targets",
          "type": "uint256"
        },
        {
          "internalType": "uint256",
          "name": "calldatas",
          "type": "uint256"
        },
        {
          "internalType": "uint256",
          "name": "values",
          "type": "uint256"
        }
      ],
      "name": "GovernorInvalidProposalLength",
      "type": "error"
    },
    {
      "inputs": [
        {
          "internalType": "uint256",
          "name": "quorumNumerator",
          "type": "uint256"
        },
        {
          "internalType": "uint256",
          "name": "quorumDenominator",
          "type": "uint256"
        }
      ],
      "name": "GovernorInvalidQuorumFraction",
      "type": "error"
    },
    {
      "inputs": [
        {
          "internalType": "address",
          "name": "voter",
          "type": "address"
        }
      ],
      "name": "GovernorInvalidSignature",
      "type": "error"
    },
    {
      "inputs": [],
      "name": "GovernorInvalidVoteType",
      "type": "error"
    },
    {
      "inputs": [
        {
          "internalType": "uint256",
          "name": "votingPeriod",
          "type": "uint256"
        }
      ],
      "name": "GovernorInvalidVotingPeriod",
      "type": "error"
    },
    {
      "inputs": [
        {
          "internalType": "uint256",
          "name": "proposalId",
          "type": "uint256"
        }
      ],
      "name": "GovernorNonexistentProposal",
      "type": "error"
    },
    {
      "inputs": [
        {
          "internalType": "uint256",
          "name": "proposalId",
          "type": "uint256"
        }
      ],
      "name": "GovernorNotQueuedProposal",
      "type": "error"
    },
    {
      "inputs": [
        {
          "internalType": "address",
          "name": "account",
          "type": "address"
        }
      ],
      "name": "GovernorOnlyExecutor",
      "type": "error"
    },
    {
      "inputs": [
        {
          "internalType": "address",
          "name": "account",
          "type": "address"
        }
      ],
      "name": "GovernorOnlyProposer",
      "type": "error"
    },
    {
      "inputs": [],
      "name": "GovernorQueueNotImplemented",
      "type": "error"
    },
    {
      "inputs": [
        {
          "internalType": "address",
          "name": "proposer",
          "type": "address"
        }
      ],
      "name": "GovernorRestrictedProposer",
      "type": "error"
    },
    {
      "inputs": [
        {
          "internalType": "uint256",
          "name": "proposalId",
          "type": "uint256"
        },
        {
          "internalType": "enum IGovernor.ProposalState",
          "name": "current",
          "type": "uint8"
        },
        {
          "internalType": "bytes32",
          "name": "expectedStates",
          "type": "bytes32"
        }
      ],
      "name": "GovernorUnexpectedProposalState",
      "type": "error"
    },
    {
      "inputs": [
        {
          "internalType": "address",
          "name": "account",
          "type": "address"
        },
        {
          "internalType": "uint256",
          "name": "currentNonce",
          "type": "uint256"
        }
      ],
      "name": "InvalidAccountNonce",
      "type": "error"
    },
    {
      "inputs": [],
      "name": "InvalidShortString",
      "type": "error"
    },
    {
      "inputs": [],
      "name": "QueueEmpty",
      "type": "error"
    },
    {
      "inputs": [],
      "name": "QueueFull",
      "type": "error"
    },
    {
      "inputs": [
        {
          "internalType": "uint8",
          "name": "bits",
          "type": "uint8"
        },
        {
          "internalType": "uint256",
          "name": "value",
          "type": "uint256"
        }
      ],
      "name": "SafeCastOverflowedUintDowncast",
      "type": "error"
    },
    {
      "inputs": [
        {
          "internalType": "string",
          "name": "str",
          "type": "string"
        }
      ],
      "name": "StringTooLong",
      "type": "error"
    },
    {
      "anonymous": false,
      "inputs": [],
      "name": "EIP712DomainChanged",
      "type": "event"
    },
    {
      "anonymous": false,
      "inputs": [
        {
          "indexed": false,
          "internalType": "uint256",
          "name": "proposalId",
          "type": "uint256"
        }
      ],
      "name": "ProposalCanceled",
      "type": "event"
    },
    {
      "anonymous": false,
      "inputs": [
        {
          "indexed": false,
          "internalType": "uint256",
          "name": "proposalId",
          "type": "uint256"
        },
        {
          "indexed": false,
          "internalType": "address",
          "name": "proposer",
          "type": "address"
        },
        {
          "indexed": false,
          "internalType": "address[]",
          "name": "targets",
          "type": "address[]"
        },
        {
          "indexed": false,
          "internalType": "uint256[]",
          "name": "values",
          "type": "uint256[]"
        },
        {
          "indexed": false,
          "internalType": "string[]",
          "name": "signatures",
          "type": "string[]"
        },
        {
          "indexed": false,
          "internalType": "bytes[]",
          "name": "calldatas",
          "type": "bytes[]"
        },
        {
          "indexed": false,
          "internalType": "uint256",
          "name": "voteStart",
          "type": "uint256"
        },
        {
          "indexed": false,
          "internalType": "uint256",
          "name": "voteEnd",
          "type": "uint256"
        },
        {
          "indexed": false,
          "internalType": "string",
          "name": "description",
          "type": "string"
        }
      ],
      "name": "ProposalCreated",
      "type": "event"
    },
    {
      "anonymous": false,
      "inputs": [
        {
          "indexed": false,
          "internalType": "uint256",
          "name": "proposalId",
          "type": "uint256"
        }
      ],
      "name": "ProposalExecuted",
      "type": "event"
    },
    {
      "anonymous": false,
      "inputs": [
        {
          "indexed": false,
          "internalType": "uint256",
          "name": "proposalId",
          "type": "uint256"
        },
        {
          "indexed": false,
          "internalType": "uint256",
          "name": "etaSeconds",
          "type": "uint256"
        }
      ],
      "name": "ProposalQueued",
      "type": "event"
    },
    {
      "anonymous": false,
      "inputs": [
        {
          "indexed": false,
          "internalType": "uint256",
          "name": "oldProposalThreshold",
          "type": "uint256"
        },
        {
          "indexed": false,
          "internalType": "uint256",
          "name": "newProposalThreshold",
          "type": "uint256"
        }
      ],
      "name": "ProposalThresholdSet",
      "type": "event"
    },
    {
      "anonymous": false,
      "inputs": [
        {
          "indexed": false,
          "internalType": "uint256",
          "name": "oldQuorumNumerator",
          "type": "uint256"
        },
        {
          "indexed": false,
          "internalType": "uint256",
          "name": "newQuorumNumerator",
          "type": "uint256"
        }
      ],
      "name": "QuorumNumeratorUpdated",
      "type": "event"
    },
    {
      "anonymous": false,
      "inputs": [
        {
          "indexed": false,
          "internalType": "address",
          "name": "oldTimelock",
          "type": "address"
        },
        {
          "indexed": false,
          "internalType": "address",
          "name": "newTimelock",
          "type": "address"
        }
      ],
      "name": "TimelockChange",
      "type": "event"
    },
    {
      "anonymous": false,
      "inputs": [
        {
          "indexed": true,
          "internalType": "address",
          "name": "voter",
          "type": "address"
        },
        {
          "indexed": false,
          "internalType": "uint256",
          "name": "proposalId",
          "type": "uint256"
        },
        {
          "indexed": false,
          "internalType": "uint8",
          "name": "support",
          "type": "uint8"
        },
        {
          "indexed": false,
          "internalType": "uint256",
          "name": "weight",
          "type": "uint256"
        },
        {
          "indexed": false,
          "internalType": "string",
          "name": "reason",
          "type": "string"
        }
      ],
      "name": "VoteCast",
      "type": "event"
    },
    {
      "anonymous": false,
      "inputs": [
        {
          "indexed": true,
          "internalType": "address",
          "name": "voter",
          "type": "address"
        },
        {
          "indexed": false,
          "internalType": "uint256",
          "name": "proposalId",
          "type": "uint256"
        },
        {
          "indexed": false,
          "internalType": "uint8",
          "name": "support",
          "type": "uint8"
        },
        {
          "indexed": false,
          "internalType": "uint256",
          "name": "weight",
          "type": "uint256"
        },
        {
          "indexed": false,
          "internalType": "string",
          "name": "reason",
          "type": "string"
        },
        {
          "indexed": false,
          "internalType": "bytes",
          "name": "params",
          "type": "bytes"
        }
      ],
      "name": "VoteCastWithParams",
      "type": "event"
    },
    {
      "anonymous": false,
      "inputs": [
        {
          "indexed": false,
          "internalType": "uint256",
          "name": "oldVotingDelay",
          "type": "uint256"
        },
        {
          "indexed": false,
          "internalType": "uint256",
          "name": "newVotingDelay",
          "type": "uint256"
        }
      ],
      "name": "VotingDelaySet",
      "type": "event"
    },
    {
      "anonymous": false,
      "inputs": [
        {
          "indexed": false,
          "internalType": "uint256",
          "name": "oldVotingPeriod",
          "type": "uint256"
        },
        {
          "indexed": false,
          "internalType": "uint256",
          "name": "newVotingPeriod",
          "type": "uint256"
        }
      ],
      "name": "VotingPeriodSet",
      "type": "event"
    },
    {
      "inputs": [],
      "name": "BALLOT_TYPEHASH",
      "outputs": [
        {
          "internalType": "bytes32",
          "name": "",
          "type": "bytes32"
        }
      ],
      "stateMutability": "view",
      "type": "function"
    },
    {
      "inputs": [],
      "name": "CLOCK_MODE",
      "outputs": [
        {
          "internalType": "string",
          "name": "",
          "type": "string"
        }
      ],
      "stateMutability": "view",
      "type": "function"
    },
    {
      "inputs": [],
      "name": "COUNTING_MODE",
      "outputs": [
        {
          "internalType": "string",
          "name": "",
          "type": "string"
        }
      ],
      "stateMutability": "pure",
      "type": "function"
    },
    {
      "inputs": [],
      "name": "EXTENDED_BALLOT_TYPEHASH",
      "outputs": [
        {
          "internalType": "bytes32",
          "name": "",
          "type": "bytes32"
        }
      ],
      "stateMutability": "view",
      "type": "function"
    },
    {
      "inputs": [
        {
          "internalType": "address[]",
          "name": "targets",
          "type": "address[]"
        },
        {
          "internalType": "uint256[]",
          "name": "values",
          "type": "uint256[]"
        },
        {
          "internalType": "bytes[]",
          "name": "calldatas",
          "type": "bytes[]"
        },
        {
          "internalType": "bytes32",
          "name": "descriptionHash",
          "type": "bytes32"
        }
      ],
      "name": "cancel",
      "outputs": [
        {
          "internalType": "uint256",
          "name": "",
          "type": "uint256"
        }
      ],
      "stateMutability": "nonpayable",
      "type": "function"
    },
    {
      "inputs": [
        {
          "internalType": "uint256",
          "name": "proposalId",
          "type": "uint256"
        },
        {
          "internalType": "uint8",
          "name": "support",
          "type": "uint8"
        }
      ],
      "name": "castVote",
      "outputs": [
        {
          "internalType": "uint256",
          "name": "",
          "type": "uint256"
        }
      ],
      "stateMutability": "nonpayable",
      "type": "function"
    },
    {
      "inputs": [
        {
          "internalType": "uint256",
          "name": "proposalId",
          "type": "uint256"
        },
        {
          "internalType": "uint8",
          "name": "support",
          "type": "uint8"
        },
        {
          "internalType": "address",
          "name": "voter",
          "type": "address"
        },
        {
          "internalType": "bytes",
          "name": "signature",
          "type": "bytes"
        }
      ],
      "name": "castVoteBySig",
      "outputs": [
        {
          "internalType": "uint256",
          "name": "",
          "type": "uint256"
        }
      ],
      "stateMutability": "nonpayable",
      "type": "function"
    },
    {
      "inputs": [
        {
          "internalType": "uint256",
          "name": "proposalId",
          "type": "uint256"
        },
        {
          "internalType": "uint8",
          "name": "support",
          "type": "uint8"
        },
        {
          "internalType": "string",
          "name": "reason",
          "type": "string"
        }
      ],
      "name": "castVoteWithReason",
      "outputs": [
        {
          "internalType": "uint256",
          "name": "",
          "type": "uint256"
        }
      ],
      "stateMutability": "nonpayable",
      "type": "function"
    },
    {
      "inputs": [
        {
          "internalType": "uint256",
          "name": "proposalId",
          "type": "uint256"
        },
        {
          "internalType": "uint8",
          "name": "support",
          "type": "uint8"
        },
        {
          "internalType": "string",
          "name": "reason",
          "type": "string"
        },
        {
          "internalType": "bytes",
          "name": "params",
          "type": "bytes"
        }
      ],
      "name": "castVoteWithReasonAndParams",
      "outputs": [
        {
          "internalType": "uint256",
          "name": "",
          "type": "uint256"
        }
      ],
      "stateMutability": "nonpayable",
      "type": "function"
    },
    {
      "inputs": [
        {
          "internalType": "uint256",
          "name": "proposalId",
          "type": "uint256"
        },
        {
          "internalType": "uint8",
          "name": "support",
          "type": "uint8"
        },
        {
          "internalType": "address",
          "name": "voter",
          "type": "address"
        },
        {
          "internalType": "string",
          "name": "reason",
          "type": "string"
        },
        {
          "internalType": "bytes",
          "name": "params",
          "type": "bytes"
        },
        {
          "internalType": "bytes",
          "name": "signature",
          "type": "bytes"
        }
      ],
      "name": "castVoteWithReasonAndParamsBySig",
      "outputs": [
        {
          "internalType": "uint256",
          "name": "",
          "type": "uint256"
        }
      ],
      "stateMutability": "nonpayable",
      "type": "function"
    },
    {
      "inputs": [],
      "name": "clock",
      "outputs": [
        {
          "internalType": "uint48",
          "name": "",
          "type": "uint48"
        }
      ],
      "stateMutability": "view",
      "type": "function"
    },
    {
      "inputs": [],
      "name": "eip712Domain",
      "outputs": [
        {
          "internalType": "bytes1",
          "name": "fields",
          "type": "bytes1"
        },
        {
          "internalType": "string",
          "name": "name",
          "type": "string"
        },
        {
          "internalType": "string",
          "name": "version",
          "type": "string"
        },
        {
          "internalType": "uint256",
          "name": "chainId",
          "type": "uint256"
        },
        {
          "internalType": "address",
          "name": "verifyingContract",
          "type": "address"
        },
        {
          "internalType": "bytes32",
          "name": "salt",
          "type": "bytes32"
        },
        {
          "internalType": "uint256[]",
          "name": "extensions",
          "type": "uint256[]"
        }
      ],
      "stateMutability": "view",
      "type": "function"
    },
    {
      "inputs": [
        {
          "internalType": "address[]",
          "name": "targets",
          "type": "address[]"
        },
        {
          "internalType": "uint256[]",
          "name": "values",
          "type": "uint256[]"
        },
        {
          "internalType": "bytes[]",
          "name": "calldatas",
          "type": "bytes[]"
        },
        {
          "internalType": "bytes32",
          "name": "descriptionHash",
          "type": "bytes32"
        }
      ],
      "name": "execute",
      "outputs": [
        {
          "internalType": "uint256",
          "name": "",
          "type": "uint256"
        }
      ],
      "stateMutability": "payable",
      "type": "function"
    },
    {
      "inputs": [
        {
          "internalType": "address",
          "name": "account",
          "type": "address"
        },
        {
          "internalType": "uint256",
          "name": "timepoint",
          "type": "uint256"
        }
      ],
      "name": "getVotes",
      "outputs": [
        {
          "internalType": "uint256",
          "name": "",
          "type": "uint256"
        }
      ],
      "stateMutability": "view",
      "type": "function"
    },
    {
      "inputs": [
        {
          "internalType": "address",
          "name": "account",
          "type": "address"
        },
        {
          "internalType": "uint256",
          "name": "timepoint",
          "type": "uint256"
        },
        {
          "internalType": "bytes",
          "name": "params",
          "type": "bytes"
        }
      ],
      "name": "getVotesWithParams",
      "outputs": [
        {
          "internalType": "uint256",
          "name": "",
          "type": "uint256"
        }
      ],
      "stateMutability": "view",
      "type": "function"
    },
    {
      "inputs": [
        {
          "internalType": "uint256",
          "name": "proposalId",
          "type": "uint256"
        },
        {
          "internalType": "address",
          "name": "account",
          "type": "address"
        }
      ],
      "name": "hasVoted",
      "outputs": [
        {
          "internalType": "bool",
          "name": "",
          "type": "bool"
        }
      ],
      "stateMutability": "view",
      "type": "function"
    },
    {
      "inputs": [
        {
          "internalType": "address[]",
          "name": "targets",
          "type": "address[]"
        },
        {
          "internalType": "uint256[]",
          "name": "values",
          "type": "uint256[]"
        },
        {
          "internalType": "bytes[]",
          "name": "calldatas",
          "type": "bytes[]"
        },
        {
          "internalType": "bytes32",
          "name": "descriptionHash",
          "type": "bytes32"
        }
      ],
      "name": "hashProposal",
      "outputs": [
        {
          "internalType": "uint256",
          "name": "",
          "type": "uint256"
        }
      ],
      "stateMutability": "pure",
      "type": "function"
    },
    {
      "inputs": [],
      "name": "name",
      "outputs": [
        {
          "internalType": "string",
          "name": "",
          "type": "string"
        }
      ],
      "stateMutability": "view",
      "type": "function"
    },
    {
      "inputs": [
        {
          "internalType": "address",
          "name": "owner",
          "type": "address"
        }
      ],
      "name": "nonces",
      "outputs": [
        {
          "internalType": "uint256",
          "name": "",
          "type": "uint256"
        }
      ],
      "stateMutability": "view",
      "type": "function"
    },
    {
      "inputs": [
        {
          "internalType": "address",
          "name": "",
          "type": "address"
        },
        {
          "internalType": "address",
          "name": "",
          "type": "address"
        },
        {
          "internalType": "uint256[]",
          "name": "",
          "type": "uint256[]"
        },
        {
          "internalType": "uint256[]",
          "name": "",
          "type": "uint256[]"
        },
        {
          "internalType": "bytes",
          "name": "",
          "type": "bytes"
        }
      ],
      "name": "onERC1155BatchReceived",
      "outputs": [
        {
          "internalType": "bytes4",
          "name": "",
          "type": "bytes4"
        }
      ],
      "stateMutability": "nonpayable",
      "type": "function"
    },
    {
      "inputs": [
        {
          "internalType": "address",
          "name": "",
          "type": "address"
        },
        {
          "internalType": "address",
          "name": "",
          "type": "address"
        },
        {
          "internalType": "uint256",
          "name": "",
          "type": "uint256"
        },
        {
          "internalType": "uint256",
          "name": "",
          "type": "uint256"
        },
        {
          "internalType": "bytes",
          "name": "",
          "type": "bytes"
        }
      ],
      "name": "onERC1155Received",
      "outputs": [
        {
          "internalType": "bytes4",
          "name": "",
          "type": "bytes4"
        }
      ],
      "stateMutability": "nonpayable",
      "type": "function"
    },
    {
      "inputs": [
        {
          "internalType": "address",
          "name": "",
          "type": "address"
        },
        {
          "internalType": "address",
          "name": "",
          "type": "address"
        },
        {
          "internalType": "uint256",
          "name": "",
          "type": "uint256"
        },
        {
          "internalType": "bytes",
          "name": "",
          "type": "bytes"
        }
      ],
      "name": "onERC721Received",
      "outputs": [
        {
          "internalType": "bytes4",
          "name": "",
          "type": "bytes4"
        }
      ],
      "stateMutability": "nonpayable",
      "type": "function"
    },
    {
      "inputs": [
        {
          "internalType": "uint256",
          "name": "proposalId",
          "type": "uint256"
        }
      ],
      "name": "proposalDeadline",
      "outputs": [
        {
          "internalType": "uint256",
          "name": "",
          "type": "uint256"
        }
      ],
      "stateMutability": "view",
      "type": "function"
    },
    {
      "inputs": [
        {
          "internalType": "uint256",
          "name": "proposalId",
          "type": "uint256"
        }
      ],
      "name": "proposalEta",
      "outputs": [
        {
          "internalType": "uint256",
          "name": "",
          "type": "uint256"
        }
      ],
      "stateMutability": "view",
      "type": "function"
    },
    {
      "inputs": [
        {
          "internalType": "uint256",
          "name": "proposalId",
          "type": "uint256"
        }
      ],
      "name": "proposalNeedsQueuing",
      "outputs": [
        {
          "internalType": "bool",
          "name": "",
          "type": "bool"
        }
      ],
      "stateMutability": "view",
      "type": "function"
    },
    {
      "inputs": [
        {
          "internalType": "uint256",
          "name": "proposalId",
          "type": "uint256"
        }
      ],
      "name": "proposalProposer",
      "outputs": [
        {
          "internalType": "address",
          "name": "",
          "type": "address"
        }
      ],
      "stateMutability": "view",
      "type": "function"
    },
    {
      "inputs": [
        {
          "internalType": "uint256",
          "name": "proposalId",
          "type": "uint256"
        }
      ],
      "name": "proposalSnapshot",
      "outputs": [
        {
          "internalType": "uint256",
          "name": "",
          "type": "uint256"
        }
      ],
      "stateMutability": "view",
      "type": "function"
    },
    {
      "inputs": [],
      "name": "proposalThreshold",
      "outputs": [
        {
          "internalType": "uint256",
          "name": "",
          "type": "uint256"
        }
      ],
      "stateMutability": "view",
      "type": "function"
    },
    {
      "inputs": [
        {
          "internalType": "uint256",
          "name": "proposalId",
          "type": "uint256"
        }
      ],
      "name": "proposalVotes",
      "outputs": [
        {
          "internalType": "uint256",
          "name": "againstVotes",
          "type": "uint256"
        },
        {
          "internalType": "uint256",
          "name": "forVotes",
          "type": "uint256"
        },
        {
          "internalType": "uint256",
          "name": "abstainVotes",
          "type": "uint256"
        }
      ],
      "stateMutability": "view",
      "type": "function"
    },
    {
      "inputs": [
        {
          "internalType": "address[]",
          "name": "targets",
          "type": "address[]"
        },
        {
          "internalType": "uint256[]",
          "name": "values",
          "type": "uint256[]"
        },
        {
          "internalType": "bytes[]",
          "name": "calldatas",
          "type": "bytes[]"
        },
        {
          "internalType": "string",
          "name": "description",
          "type": "string"
        }
      ],
      "name": "propose",
      "outputs": [
        {
          "internalType": "uint256",
          "name": "",
          "type": "uint256"
        }
      ],
      "stateMutability": "nonpayable",
      "type": "function"
    },
    {
      "inputs": [
        {
          "internalType": "address[]",
          "name": "targets",
          "type": "address[]"
        },
        {
          "internalType": "uint256[]",
          "name": "values",
          "type": "uint256[]"
        },
        {
          "internalType": "bytes[]",
          "name": "calldatas",
          "type": "bytes[]"
        },
        {
          "internalType": "bytes32",
          "name": "descriptionHash",
          "type": "bytes32"
        }
      ],
      "name": "queue",
      "outputs": [
        {
          "internalType": "uint256",
          "name": "",
          "type": "uint256"
        }
      ],
      "stateMutability": "nonpayable",
      "type": "function"
    },
    {
      "inputs": [
        {
          "internalType": "uint256",
          "name": "blockNumber",
          "type": "uint256"
        }
      ],
      "name": "quorum",
      "outputs": [
        {
          "internalType": "uint256",
          "name": "",
          "type": "uint256"
        }
      ],
      "stateMutability": "view",
      "type": "function"
    },
    {
      "inputs": [],
      "name": "quorumDenominator",
      "outputs": [
        {
          "internalType": "uint256",
          "name": "",
          "type": "uint256"
        }
      ],
      "stateMutability": "view",
      "type": "function"
    },
    {
      "inputs": [
        {
          "internalType": "uint256",
          "name": "timepoint",
          "type": "uint256"
        }
      ],
      "name": "quorumNumerator",
      "outputs": [
        {
          "internalType": "uint256",
          "name": "",
          "type": "uint256"
        }
      ],
      "stateMutability": "view",
      "type": "function"
    },
    {
      "inputs": [],
      "name": "quorumNumerator",
      "outputs": [
        {
          "internalType": "uint256",
          "name": "",
          "type": "uint256"
        }
      ],
      "stateMutability": "view",
      "type": "function"
    },
    {
      "inputs": [
        {
          "internalType": "address",
          "name": "target",
          "type": "address"
        },
        {
          "internalType": "uint256",
          "name": "value",
          "type": "uint256"
        },
        {
          "internalType": "bytes",
          "name": "data",
          "type": "bytes"
        }
      ],
      "name": "relay",
      "outputs": [],
      "stateMutability": "payable",
      "type": "function"
    },
    {
      "inputs": [
        {
          "internalType": "uint256",
          "name": "newProposalThreshold",
          "type": "uint256"
        }
      ],
      "name": "setProposalThreshold",
      "outputs": [],
      "stateMutability": "nonpayable",
      "type": "function"
    },
    {
      "inputs": [
        {
          "internalType": "uint48",
          "name": "newVotingDelay",
          "type": "uint48"
        }
      ],
      "name": "setVotingDelay",
      "outputs": [],
      "stateMutability": "nonpayable",
      "type": "function"
    },
    {
      "inputs": [
        {
          "internalType": "uint32",
          "name": "newVotingPeriod",
          "type": "uint32"
        }
      ],
      "name": "setVotingPeriod",
      "outputs": [],
      "stateMutability": "nonpayable",
      "type": "function"
    },
    {
      "inputs": [
        {
          "internalType": "uint256",
          "name": "proposalId",
          "type": "uint256"
        }
      ],
      "name": "state",
      "outputs": [
        {
          "internalType": "enum IGovernor.ProposalState",
          "name": "",
          "type": "uint8"
        }
      ],
      "stateMutability": "view",
      "type": "function"
    },
    {
      "inputs": [
        {
          "internalType": "bytes4",
          "name": "interfaceId",
          "type": "bytes4"
        }
      ],
      "name": "supportsInterface",
      "outputs": [
        {
          "internalType": "bool",
          "name": "",
          "type": "bool"
        }
      ],
      "stateMutability": "view",
      "type": "function"
    },
    {
      "inputs": [],
      "name": "timelock",
      "outputs": [
        {
          "internalType": "address",
          "name": "",
          "type": "address"
        }
      ],
      "stateMutability": "view",
      "type": "function"
    },
    {
      "inputs": [],
      "name": "token",
      "outputs": [
        {
          "internalType": "contract IERC5805",
          "name": "",
          "type": "address"
        }
      ],
      "stateMutability": "view",
      "type": "function"
    },
    {
      "inputs": [
        {
          "internalType": "uint256",
          "name": "newQuorumNumerator",
          "type": "uint256"
        }
      ],
      "name": "updateQuorumNumerator",
      "outputs": [],
      "stateMutability": "nonpayable",
      "type": "function"
    },
    {
      "inputs": [
        {
          "internalType": "contract TimelockController",
          "name": "newTimelock",
          "type": "address"
        }
      ],
      "name": "updateTimelock",
      "outputs": [],
      "stateMutability": "nonpayable",
      "type": "function"
    },
    {
      "inputs": [],
      "name": "version",
      "outputs": [
        {
          "internalType": "string",
          "name": "",
          "type": "string"
        }
      ],
      "stateMutability": "view",
      "type": "function"
    },
    {
      "inputs": [],
      "name": "votingDelay",
      "outputs": [
        {
          "internalType": "uint256",
          "name": "",
          "type": "uint256"
        }
      ],
      "stateMutability": "view",
      "type": "function"
    },
    {
      "inputs": [],
      "name": "votingPeriod",
      "outputs": [
        {
          "internalType": "uint256",
          "name": "",
          "type": "uint256"
        }
      ],
      "stateMutability": "view",
      "type": "function"
    },
    {
      "stateMutability": "payable",
      "type": "receive"
    }
  ],
  "bytecode": "0x6101806040523480156200001257600080fd5b5060405162004db338038062004db38339810160408190526200003591620007b6565b80600483600161c4e068056bc75e2d631000006040518060400160405280600d81526020016c4149546f6f6c4875622044414f60981b815250806200007f6200019660201b60201c565b6200008c826000620001b1565b610120526200009d816001620001b1565b61014052815160208084019190912060e052815190820120610100524660a0526200012b60e05161010051604080517f8b73c3c69bb8fe3d512ecc4cf759cc79239f7b179b0ffacaa9a75d522b39400f60208201529081019290925260608201524660808201523060a082015260009060c00160405160208183030381529060405280519060200120905090565b60805250503060c05260036200014282826200089a565b5062000150905083620001ea565b6200015b8262000250565b6200016681620002f7565b5050506001600160a01b031661016052620001818162000338565b506200018d81620003d8565b50505062000a27565b6040805180820190915260018152603160f81b602082015290565b6000602083511015620001d157620001c98362000441565b9050620001e4565b81620001de84826200089a565b5060ff90505b92915050565b6008546040805165ffffffffffff928316815291831660208301527fc565b045403dc03c2eea82b81a0465edad9e2e7fc4d97e11421c209da93d7a93910160405180910390a16008805465ffffffffffff191665ffffffffffff92909216919091179055565b8063ffffffff16600003620002805760405163f1cfbf0560e01b8152600060048201526024015b60405180910390fd5b6008546040805163ffffffff66010000000000009093048316815291831660208301527f7e3f7f0708a84de9203036abaa450dccc85ad5ff52f78c170f3edb55cf5e8828910160405180910390a16008805463ffffffff90921666010000000000000263ffffffff60301b19909216919091179055565b60075460408051918252602082018390527fccb45da8d5717e6c4544694297c4ba5cf151d455c9bb0ed4fc7a38411bc05461910160405180910390a1600755565b606480821115620003675760405163243e544560e01b8152600481018390526024810182905260440162000277565b60006200037362000484565b90506200039862000383620004a0565b6200038e8562000522565b600a91906200055c565b505060408051828152602081018590527f0553476bf02ef2726e8ce5ced78d63e26e602e4a2257b1f559418e24b4633997910160405180910390a1505050565b600b54604080516001600160a01b03928316815291831660208301527f08f74ea46ef7894f65eabfb5e6e695de773a000b47c529ab559178069b226401910160405180910390a1600b80546001600160a01b0319166001600160a01b0392909216919091179055565b600080829050601f815111156200046f578260405163305a27a960e01b815260040162000277919062000966565b80516200047c82620009b6565b179392505050565b600062000492600a62000579565b6001600160d01b0316905090565b6000620004ad6101605190565b6001600160a01b03166391ddadf46040518163ffffffff1660e01b8152600401602060405180830381865afa92505050801562000509575060408051601f3d908101601f191682019092526200050691810190620009db565b60015b6200051d5762000518620005c9565b905090565b919050565b60006001600160d01b0382111562000558576040516306dfcc6560e41b815260d060048201526024810183905260440162000277565b5090565b6000806200056c858585620005d6565b915091505b935093915050565b80546000908015620005bf57620005a5836200059760018462000a05565b600091825260209091200190565b54660100000000000090046001600160d01b0316620005c2565b60005b9392505050565b6000620005184362000768565b82546000908190801562000709576000620005f8876200059760018562000a05565b60408051808201909152905465ffffffffffff80821680845266010000000000009092046001600160d01b0316602084015291925090871610156200065057604051632520601d60e01b815260040160405180910390fd5b805165ffffffffffff808816911603620006a4578462000677886200059760018662000a05565b80546001600160d01b039290921666010000000000000265ffffffffffff909216919091179055620006f8565b6040805180820190915265ffffffffffff80881682526001600160d01b0380881660208085019182528b54600181018d5560008d815291909120945191519092166601000000000000029216919091179101555b602001519250839150620005719050565b50506040805180820190915265ffffffffffff80851682526001600160d01b0380851660208085019182528854600181018a5560008a815291822095519251909316660100000000000002919093161792019190915590508162000571565b600065ffffffffffff82111562000558576040516306dfcc6560e41b8152603060048201526024810183905260440162000277565b6001600160a01b0381168114620007b357600080fd5b50565b60008060408385031215620007ca57600080fd5b8251620007d7816200079d565b6020840151909250620007ea816200079d565b809150509250929050565b634e487b7160e01b600052604160045260246000fd5b600181811c908216806200082057607f821691505b6020821081036200084157634e487b7160e01b600052602260045260246000fd5b50919050565b601f8211156200089557600081815260208120601f850160051c81016020861015620008705750805b601f850160051c820191505b8181101562000891578281556001016200087c565b5050505b505050565b81516001600160401b03811115620008b657620008b6620007f5565b620008ce81620008c784546200080b565b8462000847565b602080601f831160018114620009065760008415620008ed5750858301515b600019600386901b1c1916600185901b17855562000891565b600085815260208120601f198616915b82811015620009375788860151825594840194600190910190840162000916565b5085821015620009565787850151600019600388901b60f8161c191681555b5050505050600190811b01905550565b600060208083528351808285015260005b81811015620009955785810183015185820160400152820162000977565b506000604082860101526040601f19601f8301168501019250505092915050565b80516020808301519190811015620008415760001960209190910360031b1b16919050565b600060208284031215620009ee57600080fd5b815165ffffffffffff81168114620005c257600080fd5b81810381811115620001e457634e487b7160e01b600052601160045260246000fd5b60805160a05160c05160e0516101005161012051610140516101605161430a62000aa9600039600081816109de01528181610e50015281816113ab01528181612002015261225c01526000611fcd01526000611fa00152600061289001526000612868015260006127c3015260006127ed01526000612817015261430a6000f3fe6080604052600436106102975760003560e01c80637ecebe001161015a578063c01f9e37116100c1578063e540d01d1161007a578063e540d01d1461092f578063eb9019d41461094f578063ece40cc11461096f578063f23a6e611461098f578063f8ce560a146109af578063fc0c546a146109cf57600080fd5b8063c01f9e3714610844578063c28bc2fa14610864578063c59057e414610877578063d33219b414610897578063dd4e2ba5146108b5578063deaaa7cc146108fb57600080fd5b8063a7713a7011610113578063a7713a7014610782578063a890c91014610797578063a9a95294146107b7578063ab58fb8e146107d7578063b58131b01461080f578063bc197c811461082457600080fd5b80637ecebe00146106a457806384b0196e146106da5780638ff262e31461070257806391ddadf41461072257806397c3d3341461074e5780639a802a6d1461076257600080fd5b806343859632116101fe5780635b8d0e0d116101b75780635b8d0e0d146105e45780635f398a141461060457806360c4247f1461062457806379051887146106445780637b3c71d3146106645780637d5e81e21461068457600080fd5b806343859632146104c6578063452115d6146105105780634bf5d7e914610530578063544ffc9c1461054557806354fd4d501461059a57806356781388146105c457600080fd5b8063160cbed711610250578063160cbed7146103fd5780632656227d1461041d5780632d63f693146104305780632fe3e261146104505780633932abb1146104845780633e4f49e61461049957600080fd5b806301ffc9a7146102d357806302a251a31461030857806306f3f9e61461033457806306fdde0314610354578063143489d014610376578063150b7a02146103c457600080fd5b366102ce57306102a5610a02565b6001600160a01b0316146102cc57604051637485328f60e11b815260040160405180910390fd5b005b600080fd5b3480156102df57600080fd5b506102f36102ee366004613248565b610a1b565b60405190151581526020015b60405180910390f35b34801561031457600080fd5b50600854600160301b900463ffffffff165b6040519081526020016102ff565b34801561034057600080fd5b506102cc61034f366004613272565b610a6d565b34801561036057600080fd5b50610369610a81565b6040516102ff91906132db565b34801561038257600080fd5b506103ac610391366004613272565b6000908152600460205260409020546001600160a01b031690565b6040516001600160a01b0390911681526020016102ff565b3480156103d057600080fd5b506103e46103df3660046133ce565b610b13565b6040516001600160e01b031990911681526020016102ff565b34801561040957600080fd5b506103266104183660046135a5565b610b56565b61032661042b3660046135a5565b610c25565b34801561043c57600080fd5b5061032661044b366004613272565b610d99565b34801561045c57600080fd5b506103267f3e83946653575f9a39005e1545185629e92736b7528ab20ca3816f315424a81181565b34801561049057600080fd5b50610326610dba565b3480156104a557600080fd5b506104b96104b4366004613272565b610dcd565b6040516102ff919061366c565b3480156104d257600080fd5b506102f36104e136600461367a565b60008281526009602090815260408083206001600160a01b038516845260030190915290205460ff1692915050565b34801561051c57600080fd5b5061032661052b3660046135a5565b610dd8565b34801561053c57600080fd5b50610369610e4c565b34801561055157600080fd5b5061057f610560366004613272565b6000908152600960205260409020805460018201546002909201549092565b604080519384526020840192909252908201526060016102ff565b3480156105a657600080fd5b506040805180820190915260018152603160f81b6020820152610369565b3480156105d057600080fd5b506103266105df3660046136bb565b610f0e565b3480156105f057600080fd5b506103266105ff36600461372f565b610f37565b34801561061057600080fd5b5061032661061f3660046137e9565b611096565b34801561063057600080fd5b5061032661063f366004613272565b6110eb565b34801561065057600080fd5b506102cc61065f366004613880565b611179565b34801561067057600080fd5b5061032661067f36600461389d565b61118a565b34801561069057600080fd5b5061032661069f3660046138f6565b6111d2565b3480156106b057600080fd5b506103266106bf3660046139aa565b6001600160a01b031660009081526002602052604090205490565b3480156106e657600080fd5b506106ef61128f565b6040516102ff9796959493929190613a02565b34801561070e57600080fd5b5061032661071d366004613a72565b6112d5565b34801561072e57600080fd5b506107376113a7565b60405165ffffffffffff90911681526020016102ff565b34801561075a57600080fd5b506064610326565b34801561076e57600080fd5b5061032661077d366004613ac3565b61142f565b34801561078e57600080fd5b5061032661143c565b3480156107a357600080fd5b506102cc6107b23660046139aa565b611456565b3480156107c357600080fd5b506102f36107d2366004613272565b611467565b3480156107e357600080fd5b506103266107f2366004613272565b60009081526004602052604090206001015465ffffffffffff1690565b34801561081b57600080fd5b50610326611470565b34801561083057600080fd5b506103e461083f366004613b1b565b61147b565b34801561085057600080fd5b5061032661085f366004613272565b6114bf565b6102cc610872366004613bae565b611502565b34801561088357600080fd5b506103266108923660046135a5565b611582565b3480156108a357600080fd5b50600b546001600160a01b03166103ac565b3480156108c157600080fd5b506040805180820190915260208082527f737570706f72743d627261766f2671756f72756d3d666f722c6162737461696e90820152610369565b34801561090757600080fd5b506103267ff2aad550cf55f045cb27e9c559f9889fdfb6e6cdaa032301d6ea397784ae51d781565b34801561093b57600080fd5b506102cc61094a366004613bf1565b6115bc565b34801561095b57600080fd5b5061032661096a366004613c17565b6115cd565b34801561097b57600080fd5b506102cc61098a366004613272565b6115f5565b34801561099b57600080fd5b506103e46109aa366004613c43565b611606565b3480156109bb57600080fd5b506103266109ca366004613272565b61164a565b3480156109db57600080fd5b507f00000000000000000000000000000000000000000000000000000000000000006103ac565b6000610a16600b546001600160a01b031690565b905090565b60006001600160e01b031982166332a2ad4360e11b1480610a4c57506001600160e01b03198216630271189760e51b145b80610a6757506301ffc9a760e01b6001600160e01b03198316145b92915050565b610a75611655565b610a7e816116cf565b50565b606060038054610a9090613cab565b80601f0160208091040260200160405190810160405280929190818152602001828054610abc90613cab565b8015610b095780601f10610ade57610100808354040283529160200191610b09565b820191906000526020600020905b815481529060010190602001808311610aec57829003601f168201915b5050505050905090565b600030610b1e610a02565b6001600160a01b031614610b4557604051637485328f60e11b815260040160405180910390fd5b50630a85bd0160e11b949350505050565b600080610b6586868686611582565b9050610b7a81610b756004611765565b611788565b506000610b8a82888888886117c7565b905065ffffffffffff811615610c0257600082815260046020908152604091829020600101805465ffffffffffff191665ffffffffffff85169081179091558251858152918201527f9a2e42fd6722813d69113e7d0079d3d940171428df7373df9c7f7617cfda2892910160405180910390a1610c1b565b604051634844252360e11b815260040160405180910390fd5b5095945050505050565b600080610c3486868686611582565b9050610c5481610c446005611765565b610c4e6004611765565b17611788565b506000818152600460205260409020805460ff60f01b1916600160f01b17905530610c7d610a02565b6001600160a01b031614610d0f5760005b8651811015610d0d57306001600160a01b0316878281518110610cb357610cb3613ce5565b60200260200101516001600160a01b031603610cfd57610cfd858281518110610cde57610cde613ce5565b60200260200101518051906020012060056117d690919063ffffffff16565b610d0681613d11565b9050610c8e565b505b610d1c8187878787611847565b30610d25610a02565b6001600160a01b031614158015610d5157506005546001600160801b03808216600160801b9092041614155b15610d5c5760006005555b6040518181527f712ae1383f79ac853f8d882153778e0260ef8f03b504e2866e0593e04d2b291f906020015b60405180910390a195945050505050565b600090815260046020526040902054600160a01b900465ffffffffffff1690565b6000610a1660085465ffffffffffff1690565b6000610a678261185b565b600080610de786868686611582565b9050610df781610b756000611765565b506000818152600460205260409020546001600160a01b03163314610e365760405163233d98e360e01b81523360048201526024015b60405180910390fd5b610e428686868661199a565b9695505050505050565b60607f00000000000000000000000000000000000000000000000000000000000000006001600160a01b0316634bf5d7e96040518163ffffffff1660e01b8152600401600060405180830381865afa925050508015610ecd57506040513d6000823e601f3d908101601f19168201604052610eca9190810190613d2a565b60015b610f09575060408051808201909152601d81527f6d6f64653d626c6f636b6e756d6265722666726f6d3d64656661756c74000000602082015290565b919050565b600080339050610f2f848285604051806020016040528060008152506119b1565b949350505050565b60008061101a876110147f3e83946653575f9a39005e1545185629e92736b7528ab20ca3816f315424a8118c8c8c610f8c8e6001600160a01b0316600090815260026020526040902080546001810190915590565b8d8d604051610f9c929190613d97565b60405180910390208c80519060200120604051602001610ff99796959493929190968752602087019590955260ff9390931660408601526001600160a01b03919091166060850152608084015260a083015260c082015260e00190565b604051602081830303815290604052805190602001206119d4565b85611a01565b905080611045576040516394ab6c0760e01b81526001600160a01b0388166004820152602401610e2d565b61108989888a89898080601f0160208091040260200160405190810160405280939291908181526020018383808284376000920191909152508b9250611a59915050565b9998505050505050505050565b6000803390506110e087828888888080601f0160208091040260200160405190810160405280939291908181526020018383808284376000920191909152508a9250611a59915050565b979650505050505050565b600a805460009182906110ff600184613da7565b8154811061110f5761110f613ce5565b6000918252602090912001805490915065ffffffffffff811690600160301b90046001600160d01b0316858211611152576001600160d01b031695945050505050565b61116661115e87611b36565b600a90611b6d565b6001600160d01b03169695505050505050565b611181611655565b610a7e81611c22565b600080339050610e4286828787878080601f0160208091040260200160405190810160405280939291908181526020018383808284376000920191909152506119b192505050565b6000336111df8184611c88565b6112075760405163d9b3955760e01b81526001600160a01b0382166004820152602401610e2d565b600061122e8260016112176113a7565b6112219190613dba565b65ffffffffffff166115cd565b9050600061123a611470565b90508082101561127657604051636121770b60e11b81526001600160a01b03841660048201526024810183905260448101829052606401610e2d565b6112838888888887611d79565b98975050505050505050565b6000606080600080600060606112a3611f99565b6112ab611fc6565b60408051600080825260208201909252600f60f81b9b939a50919850469750309650945092509050565b600080611361846110147ff2aad550cf55f045cb27e9c559f9889fdfb6e6cdaa032301d6ea397784ae51d789898961132a8b6001600160a01b0316600090815260026020526040902080546001810190915590565b60408051602081019690965285019390935260ff90911660608401526001600160a01b0316608083015260a082015260c001610ff9565b90508061138c576040516394ab6c0760e01b81526001600160a01b0385166004820152602401610e2d565b610e42868587604051806020016040528060008152506119b1565b60007f00000000000000000000000000000000000000000000000000000000000000006001600160a01b03166391ddadf46040518163ffffffff1660e01b8152600401602060405180830381865afa925050508015611423575060408051601f3d908101601f1916820190925261142091810190613de0565b60015b610f0957610a16611ff3565b6000610f2f848484611ffe565b6000611448600a612094565b6001600160d01b0316905090565b61145e611655565b610a7e816120cd565b60006001610a67565b6000610a1660075490565b600030611486610a02565b6001600160a01b0316146114ad57604051637485328f60e11b815260040160405180910390fd5b5063bc197c8160e01b95945050505050565b6000818152600460205260408120546114f490600160d01b810463ffffffff1690600160a01b900465ffffffffffff16613dfd565b65ffffffffffff1692915050565b61150a611655565b600080856001600160a01b0316858585604051611528929190613d97565b60006040518083038185875af1925050503d8060008114611565576040519150601f19603f3d011682016040523d82523d6000602084013e61156a565b606091505b50915091506115798282612136565b50505050505050565b60008484848460405160200161159b9493929190613eaa565b60408051601f19818403018152919052805160209091012095945050505050565b6115c4611655565b610a7e81612152565b60006115ee83836115e960408051602081019091526000815290565b611ffe565b9392505050565b6115fd611655565b610a7e816121f0565b600030611611610a02565b6001600160a01b03161461163857604051637485328f60e11b815260040160405180910390fd5b5063f23a6e6160e01b95945050505050565b6000610a6782612231565b3361165e610a02565b6001600160a01b031614611687576040516347096e4760e01b8152336004820152602401610e2d565b30611690610a02565b6001600160a01b0316146116cd57600080366040516116b0929190613d97565b604051809103902090505b806116c660056122db565b036116bb57505b565b6064808211156116fc5760405163243e544560e01b81526004810183905260248101829052604401610e2d565b600061170661143c565b90506117256117136113a7565b61171c85612359565b600a919061238d565b505060408051828152602081018590527f0553476bf02ef2726e8ce5ced78d63e26e602e4a2257b1f559418e24b4633997910160405180910390a1505050565b600081600781111561177957611779613634565b600160ff919091161b92915050565b60008061179484610dcd565b90506000836117a283611765565b16036115ee578381846040516331b75e4d60e01b8152600401610e2d93929190613ef5565b6000610e4286868686866123a8565b81546001600160801b03600160801b82048116918116600183019091160361181157604051638acb5f2760e01b815260040160405180910390fd5b6001600160801b03808216600090815260018086016020526040909120939093558354919092018216600160801b029116179055565b6118548585858585612547565b5050505050565b600080611867836125dd565b9050600581600781111561187d5761187d613634565b146118885792915050565b6000838152600c60205260409081902054600b549151632c258a9f60e11b81526004810182905290916001600160a01b03169063584b153e90602401602060405180830381865afa1580156118e1573d6000803e3d6000fd5b505050506040513d601f19601f820116820180604052508101906119059190613f17565b15611914575060059392505050565b600b54604051632ab0f52960e01b8152600481018390526001600160a01b0390911690632ab0f52990602401602060405180830381865afa15801561195d573d6000803e3d6000fd5b505050506040513d601f19601f820116820180604052508101906119819190613f17565b15611990575060079392505050565b5060029392505050565b60006119a885858585612717565b95945050505050565b60006119a8858585856119cf60408051602081019091526000815290565b611a59565b6000610a676119e16127b6565b8360405161190160f01b8152600281019290925260228201526042902090565b6000806000611a1085856128e1565b5090925090506000816003811115611a2a57611a2a613634565b148015611a485750856001600160a01b0316826001600160a01b0316145b80610e425750610e4286868661292e565b6000611a6986610b756001611765565b506000611a7f86611a7989610d99565b85611ffe565b9050611a8e8787878487612a09565b8251600003611ae357856001600160a01b03167fb8e138887d0aa13bab447e82de9d5c1777041ecd21ca36ba824ff1e6c07ddda488878488604051611ad69493929190613f39565b60405180910390a2610e42565b856001600160a01b03167fe2babfbac5889a709b63bb7f598b324e08bc5a4fb9ec647fb3cbc9ec07eb87128887848888604051611b24959493929190613f61565b60405180910390a29695505050505050565b600065ffffffffffff821115611b69576040516306dfcc6560e41b81526030600482015260248101839052604401610e2d565b5090565b815460009081816005811115611bcc576000611b8884612b0a565b611b929085613da7565b60008881526020902090915081015465ffffffffffff9081169087161015611bbc57809150611bca565b611bc7816001613f9b565b92505b505b6000611bda87878585612bf2565b90508015611c1557611bff87611bf1600184613da7565b600091825260209091200190565b54600160301b90046001600160d01b03166110e0565b6000979650505050505050565b6008546040805165ffffffffffff928316815291831660208301527fc565b045403dc03c2eea82b81a0465edad9e2e7fc4d97e11421c209da93d7a93910160405180910390a16008805465ffffffffffff191665ffffffffffff92909216919091179055565b80516000906034811015611ca0576001915050610a67565b82810160131901516001600160a01b031981166b046e0e4dee0dee6cae47a60f60a31b14611cd357600192505050610a67565b600080611ce1602885613da7565b90505b83811015611d5857600080611d18888481518110611d0457611d04613ce5565b01602001516001600160f81b031916612c54565b9150915081611d305760019650505050505050610a67565b8060ff166004856001600160a01b0316901b179350505080611d5190613d11565b9050611ce4565b50856001600160a01b0316816001600160a01b031614935050505092915050565b6000611d8e8686868680519060200120611582565b905084518651141580611da357508351865114155b80611dad57508551155b15611de257855184518651604051630447b05d60e41b8152600481019390935260248301919091526044820152606401610e2d565b600081815260046020526040902054600160a01b900465ffffffffffff1615611e2d5780611e0f82610dcd565b6040516331b75e4d60e01b8152610e2d929190600090600401613ef5565b6000611e37610dba565b611e3f6113a7565b65ffffffffffff16611e519190613f9b565b90506000611e6c60085463ffffffff600160301b9091041690565b600084815260046020526040902080546001600160a01b0319166001600160a01b038716178155909150611e9f83611b36565b815465ffffffffffff91909116600160a01b0265ffffffffffff60a01b19909116178155611ecc82612ce6565b815463ffffffff91909116600160d01b0263ffffffff60d01b1990911617815588517f7d84a6263ae0d98d3329bd7b46bb4e8d6f98cd35a7adb45c274c8b7fd5ebd5e090859087908c908c906001600160401b03811115611f2f57611f2f613303565b604051908082528060200260200182016040528015611f6257816020015b6060815260200190600190039081611f4d5790505b508c89611f6f8a82613f9b565b8e604051611f8599989796959493929190613fae565b60405180910390a150505095945050505050565b6060610a167f00000000000000000000000000000000000000000000000000000000000000006000612d17565b6060610a167f00000000000000000000000000000000000000000000000000000000000000006001612d17565b6000610a1643611b36565b60007f0000000000000000000000000000000000000000000000000000000000000000604051630748d63560e31b81526001600160a01b038681166004830152602482018690529190911690633a46b1a890604401602060405180830381865afa158015612070573d6000803e3d6000fd5b505050506040513d601f19601f82011682018060405250810190610f2f9190614085565b805460009080156120c4576120ae83611bf1600184613da7565b54600160301b90046001600160d01b03166115ee565b60009392505050565b600b54604080516001600160a01b03928316815291831660208301527f08f74ea46ef7894f65eabfb5e6e695de773a000b47c529ab559178069b226401910160405180910390a1600b80546001600160a01b0319166001600160a01b0392909216919091179055565b60608261214b5761214682612dc2565b610a67565b5080610a67565b8063ffffffff1660000361217c5760405163f1cfbf0560e01b815260006004820152602401610e2d565b6008546040805163ffffffff600160301b9093048316815291831660208301527f7e3f7f0708a84de9203036abaa450dccc85ad5ff52f78c170f3edb55cf5e8828910160405180910390a16008805463ffffffff909216600160301b0269ffffffff00000000000019909216919091179055565b60075460408051918252602082018390527fccb45da8d5717e6c4544694297c4ba5cf151d455c9bb0ed4fc7a38411bc05461910160405180910390a1600755565b6000606461223e836110eb565b604051632394e7a360e21b8152600481018590526001600160a01b037f00000000000000000000000000000000000000000000000000000000000000001690638e539e8c90602401602060405180830381865afa1580156122a3573d6000803e3d6000fd5b505050506040513d601f19601f820116820180604052508101906122c79190614085565b6122d1919061409e565b610a6791906140cb565b80546000906001600160801b0380821691600160801b9004168103612313576040516375e52f4f60e01b815260040160405180910390fd5b6001600160801b038181166000908152600185810160205260408220805492905585546fffffffffffffffffffffffffffffffff19169301909116919091179092555090565b60006001600160d01b03821115611b69576040516306dfcc6560e41b815260d0600482015260248101839052604401610e2d565b60008061239b858585612deb565b915091505b935093915050565b600080600b60009054906101000a90046001600160a01b03166001600160a01b031663f27a0c926040518163ffffffff1660e01b8152600401602060405180830381865afa1580156123fe573d6000803e3d6000fd5b505050506040513d601f19601f820116820180604052508101906124229190614085565b905060003060601b6bffffffffffffffffffffffff19168418600b5460405163b1c5f42760e01b81529192506001600160a01b03169063b1c5f42790612475908a908a908a9060009088906004016140ed565b602060405180830381865afa158015612492573d6000803e3d6000fd5b505050506040513d601f19601f820116820180604052508101906124b69190614085565b6000898152600c602052604080822092909255600b5491516308f2a0bb60e41b81526001600160a01b0390921691638f2a0bb091612501918b918b918b919088908a9060040161413b565b600060405180830381600087803b15801561251b57600080fd5b505af115801561252f573d6000803e3d6000fd5b5050505061128382426125429190613f9b565b611b36565b600b546001600160a01b031663e38335e53486868660003060601b6bffffffffffffffffffffffff191688186040518763ffffffff1660e01b81526004016125939594939291906140ed565b6000604051808303818588803b1580156125ac57600080fd5b505af11580156125c0573d6000803e3d6000fd5b50505060009687525050600c602052505060408320929092555050565b6000818152600460205260408120805460ff600160f01b8204811691600160f81b900416811561261257506007949350505050565b801561262357506002949350505050565b600061262e86610d99565b90508060000361265457604051636ad0607560e01b815260048101879052602401610e2d565b600061265e6113a7565b65ffffffffffff16905080821061267c575060009695505050505050565b6000612687886114bf565b905081811061269e57506001979650505050505050565b6126a788612f65565b15806126c757506000888152600960205260409020805460019091015411155b156126da57506003979650505050505050565b60008881526004602052604090206001015465ffffffffffff1660000361270957506004979650505050505050565b506005979650505050505050565b60008061272686868686612f9c565b6000818152600c60205260409020549091508015610c1b57600b5460405163c4d252f560e01b8152600481018390526001600160a01b039091169063c4d252f590602401600060405180830381600087803b15801561278457600080fd5b505af1158015612798573d6000803e3d6000fd5b5050506000838152600c602052604081205550509050949350505050565b6000306001600160a01b037f00000000000000000000000000000000000000000000000000000000000000001614801561280f57507f000000000000000000000000000000000000000000000000000000000000000046145b1561283957507f000000000000000000000000000000000000000000000000000000000000000090565b610a16604080517f8b73c3c69bb8fe3d512ecc4cf759cc79239f7b179b0ffacaa9a75d522b39400f60208201527f0000000000000000000000000000000000000000000000000000000000000000918101919091527f000000000000000000000000000000000000000000000000000000000000000060608201524660808201523060a082015260009060c00160405160208183030381529060405280519060200120905090565b6000806000835160410361291b5760208401516040850151606086015160001a61290d8882858561304d565b955095509550505050612927565b50508151600091506002905b9250925092565b6000806000856001600160a01b03168585604051602401612950929190614193565b60408051601f198184030181529181526020820180516001600160e01b0316630b135d3f60e11b1790525161298591906141ac565b600060405180830381855afa9150503d80600081146129c0576040519150601f19603f3d011682016040523d82523d6000602084013e6129c5565b606091505b50915091508180156129d957506020815110155b8015610e4257508051630b135d3f60e11b906129fe9083016020908101908401614085565b149695505050505050565b60008581526009602090815260408083206001600160a01b0388168452600381019092529091205460ff1615612a5d576040516371c6af4960e01b81526001600160a01b0386166004820152602401610e2d565b6001600160a01b03851660009081526003820160205260409020805460ff1916600117905560ff8416612aa95782816000016000828254612a9e9190613f9b565b90915550612b029050565b60001960ff851601612ac95782816001016000828254612a9e9190613f9b565b60011960ff851601612ae95782816002016000828254612a9e9190613f9b565b6040516303599be160e11b815260040160405180910390fd5b505050505050565b600081600003612b1c57506000919050565b60006001612b298461311c565b901c6001901b90506001818481612b4257612b426140b5565b048201901c90506001818481612b5a57612b5a6140b5565b048201901c90506001818481612b7257612b726140b5565b048201901c90506001818481612b8a57612b8a6140b5565b048201901c90506001818481612ba257612ba26140b5565b048201901c90506001818481612bba57612bba6140b5565b048201901c90506001818481612bd257612bd26140b5565b048201901c90506115ee81828581612bec57612bec6140b5565b046131b0565b60005b81831015612c4c576000612c0984846131c6565b60008781526020902090915065ffffffffffff86169082015465ffffffffffff161115612c3857809250612c46565b612c43816001613f9b565b93505b50612bf5565b509392505050565b60008060f883901c602f81118015612c6f5750603a8160ff16105b15612c8457600194602f199091019350915050565b8060ff166040108015612c9a575060478160ff16105b15612caf576001946036199091019350915050565b8060ff166060108015612cc5575060678160ff16105b15612cda576001946056199091019350915050565b50600093849350915050565b600063ffffffff821115611b69576040516306dfcc6560e41b81526020600482015260248101839052604401610e2d565b606060ff8314612d3157612d2a836131e1565b9050610a67565b818054612d3d90613cab565b80601f0160208091040260200160405190810160405280929190818152602001828054612d6990613cab565b8015612db65780601f10612d8b57610100808354040283529160200191612db6565b820191906000526020600020905b815481529060010190602001808311612d9957829003601f168201915b50505050509050610a67565b805115612dd25780518082602001fd5b604051630a12f52160e11b815260040160405180910390fd5b825460009081908015612f0a576000612e0987611bf1600185613da7565b60408051808201909152905465ffffffffffff808216808452600160301b9092046001600160d01b031660208401529192509087161015612e5d57604051632520601d60e01b815260040160405180910390fd5b805165ffffffffffff808816911603612ea95784612e8088611bf1600186613da7565b80546001600160d01b0392909216600160301b0265ffffffffffff909216919091179055612efa565b6040805180820190915265ffffffffffff80881682526001600160d01b0380881660208085019182528b54600181018d5560008d81529190912094519151909216600160301b029216919091179101555b6020015192508391506123a09050565b50506040805180820190915265ffffffffffff80851682526001600160d01b0380851660208085019182528854600181018a5560008a815291822095519251909316600160301b0291909316179201919091559050816123a0565b600081815260096020526040812060028101546001820154612f879190613f9b565b612f936109ca85610d99565b11159392505050565b600080612fab86868686611582565b9050612ff981612fbb6007611765565b612fc56006611765565b612fcf6002611765565b6001612fdc6007826141c8565b612fe79060026142c5565b612ff19190613da7565b181818611788565b506000818152600460205260409081902080546001600160f81b0316600160f81b179055517f789cf55be980739dad1d0699b93b58e806b51c9d96619bfa8fe0a28abaa7b30c90610d889083815260200190565b600080807f7fffffffffffffffffffffffffffffff5d576e7357a4501ddfe92f46681b20a08411156130885750600091506003905082613112565b604080516000808252602082018084528a905260ff891692820192909252606081018790526080810186905260019060a0016020604051602081039080840390855afa1580156130dc573d6000803e3d6000fd5b5050604051601f1901519150506001600160a01b03811661310857506000925060019150829050613112565b9250600091508190505b9450945094915050565b600080608083901c1561313157608092831c92015b604083901c1561314357604092831c92015b602083901c1561315557602092831c92015b601083901c1561316757601092831c92015b600883901c1561317957600892831c92015b600483901c1561318b57600492831c92015b600283901c1561319d57600292831c92015b600183901c15610a675760010192915050565b60008183106131bf57816115ee565b5090919050565b60006131d560028484186140cb565b6115ee90848416613f9b565b606060006131ee83613220565b604080516020808252818301909252919250600091906020820181803683375050509182525060208101929092525090565b600060ff8216601f811115610a6757604051632cd44ac360e21b815260040160405180910390fd5b60006020828403121561325a57600080fd5b81356001600160e01b0319811681146115ee57600080fd5b60006020828403121561328457600080fd5b5035919050565b60005b838110156132a657818101518382015260200161328e565b50506000910152565b600081518084526132c781602086016020860161328b565b601f01601f19169290920160200192915050565b6020815260006115ee60208301846132af565b6001600160a01b0381168114610a7e57600080fd5b634e487b7160e01b600052604160045260246000fd5b604051601f8201601f191681016001600160401b038111828210171561334157613341613303565b604052919050565b60006001600160401b0382111561336257613362613303565b50601f01601f191660200190565b600061338361337e84613349565b613319565b905082815283838301111561339757600080fd5b828260208301376000602084830101529392505050565b600082601f8301126133bf57600080fd5b6115ee83833560208501613370565b600080600080608085870312156133e457600080fd5b84356133ef816132ee565b935060208501356133ff816132ee565b92506040850135915060608501356001600160401b0381111561342157600080fd5b61342d878288016133ae565b91505092959194509250565b60006001600160401b0382111561345257613452613303565b5060051b60200190565b600082601f83011261346d57600080fd5b8135602061347d61337e83613439565b82815260059290921b8401810191818101908684111561349c57600080fd5b8286015b848110156134c05780356134b3816132ee565b83529183019183016134a0565b509695505050505050565b600082601f8301126134dc57600080fd5b813560206134ec61337e83613439565b82815260059290921b8401810191818101908684111561350b57600080fd5b8286015b848110156134c0578035835291830191830161350f565b600082601f83011261353757600080fd5b8135602061354761337e83613439565b82815260059290921b8401810191818101908684111561356657600080fd5b8286015b848110156134c05780356001600160401b038111156135895760008081fd5b6135978986838b01016133ae565b84525091830191830161356a565b600080600080608085870312156135bb57600080fd5b84356001600160401b03808211156135d257600080fd5b6135de8883890161345c565b955060208701359150808211156135f457600080fd5b613600888389016134cb565b9450604087013591508082111561361657600080fd5b5061362387828801613526565b949793965093946060013593505050565b634e487b7160e01b600052602160045260246000fd5b6008811061366857634e487b7160e01b600052602160045260246000fd5b9052565b60208101610a67828461364a565b6000806040838503121561368d57600080fd5b82359150602083013561369f816132ee565b809150509250929050565b803560ff81168114610f0957600080fd5b600080604083850312156136ce57600080fd5b823591506136de602084016136aa565b90509250929050565b60008083601f8401126136f957600080fd5b5081356001600160401b0381111561371057600080fd5b60208301915083602082850101111561372857600080fd5b9250929050565b600080600080600080600060c0888a03121561374a57600080fd5b8735965061375a602089016136aa565b9550604088013561376a816132ee565b945060608801356001600160401b038082111561378657600080fd5b6137928b838c016136e7565b909650945060808a01359150808211156137ab57600080fd5b6137b78b838c016133ae565b935060a08a01359150808211156137cd57600080fd5b506137da8a828b016133ae565b91505092959891949750929550565b60008060008060006080868803121561380157600080fd5b85359450613811602087016136aa565b935060408601356001600160401b038082111561382d57600080fd5b61383989838a016136e7565b9095509350606088013591508082111561385257600080fd5b5061385f888289016133ae565b9150509295509295909350565b65ffffffffffff81168114610a7e57600080fd5b60006020828403121561389257600080fd5b81356115ee8161386c565b600080600080606085870312156138b357600080fd5b843593506138c3602086016136aa565b925060408501356001600160401b038111156138de57600080fd5b6138ea878288016136e7565b95989497509550505050565b6000806000806080858703121561390c57600080fd5b84356001600160401b038082111561392357600080fd5b61392f8883890161345c565b9550602087013591508082111561394557600080fd5b613951888389016134cb565b9450604087013591508082111561396757600080fd5b61397388838901613526565b9350606087013591508082111561398957600080fd5b508501601f8101871361399b57600080fd5b61342d87823560208401613370565b6000602082840312156139bc57600080fd5b81356115ee816132ee565b600081518084526020808501945080840160005b838110156139f7578151875295820195908201906001016139db565b509495945050505050565b60ff60f81b8816815260e060208201526000613a2160e08301896132af565b8281036040840152613a3381896132af565b606084018890526001600160a01b038716608085015260a0840186905283810360c08501529050613a6481856139c7565b9a9950505050505050505050565b60008060008060808587031215613a8857600080fd5b84359350613a98602086016136aa565b92506040850135613aa8816132ee565b915060608501356001600160401b0381111561342157600080fd5b600080600060608486031215613ad857600080fd5b8335613ae3816132ee565b92506020840135915060408401356001600160401b03811115613b0557600080fd5b613b11868287016133ae565b9150509250925092565b600080600080600060a08688031215613b3357600080fd5b8535613b3e816132ee565b94506020860135613b4e816132ee565b935060408601356001600160401b0380821115613b6a57600080fd5b613b7689838a016134cb565b94506060880135915080821115613b8c57600080fd5b613b9889838a016134cb565b9350608088013591508082111561385257600080fd5b60008060008060608587031215613bc457600080fd5b8435613bcf816132ee565b93506020850135925060408501356001600160401b038111156138de57600080fd5b600060208284031215613c0357600080fd5b813563ffffffff811681146115ee57600080fd5b60008060408385031215613c2a57600080fd5b8235613c35816132ee565b946020939093013593505050565b600080600080600060a08688031215613c5b57600080fd5b8535613c66816132ee565b94506020860135613c76816132ee565b9350604086013592506060860135915060808601356001600160401b03811115613c9f57600080fd5b61385f888289016133ae565b600181811c90821680613cbf57607f821691505b602082108103613cdf57634e487b7160e01b600052602260045260246000fd5b50919050565b634e487b7160e01b600052603260045260246000fd5b634e487b7160e01b600052601160045260246000fd5b600060018201613d2357613d23613cfb565b5060010190565b600060208284031215613d3c57600080fd5b81516001600160401b03811115613d5257600080fd5b8201601f81018413613d6357600080fd5b8051613d7161337e82613349565b818152856020838501011115613d8657600080fd5b6119a882602083016020860161328b565b8183823760009101908152919050565b81810381811115610a6757610a67613cfb565b65ffffffffffff828116828216039080821115613dd957613dd9613cfb565b5092915050565b600060208284031215613df257600080fd5b81516115ee8161386c565b65ffffffffffff818116838216019080821115613dd957613dd9613cfb565b600081518084526020808501945080840160005b838110156139f75781516001600160a01b031687529582019590820190600101613e30565b600081518084526020808501808196508360051b8101915082860160005b85811015613e9d578284038952613e8b8483516132af565b98850198935090840190600101613e73565b5091979650505050505050565b608081526000613ebd6080830187613e1c565b8281036020840152613ecf81876139c7565b90508281036040840152613ee38186613e55565b91505082606083015295945050505050565b83815260608101613f09602083018561364a565b826040830152949350505050565b600060208284031215613f2957600080fd5b815180151581146115ee57600080fd5b84815260ff84166020820152826040820152608060608201526000610e4260808301846132af565b85815260ff8516602082015283604082015260a060608201526000613f8960a08301856132af565b828103608084015261128381856132af565b80820180821115610a6757610a67613cfb565b60006101208b8352602060018060a01b038c1681850152816040850152613fd78285018c613e1c565b91508382036060850152613feb828b6139c7565b915083820360808501528189518084528284019150828160051b850101838c0160005b8381101561403c57601f1987840301855261402a8383516132af565b9486019492509085019060010161400e565b505086810360a0880152614050818c613e55565b9450505050508560c08401528460e084015282810361010084015261407581856132af565b9c9b505050505050505050505050565b60006020828403121561409757600080fd5b5051919050565b8082028115828204841417610a6757610a67613cfb565b634e487b7160e01b600052601260045260246000fd5b6000826140e857634e487b7160e01b600052601260045260246000fd5b500490565b60a08152600061410060a0830188613e1c565b828103602084015261411281886139c7565b905082810360408401526141268187613e55565b60608401959095525050608001529392505050565b60c08152600061414e60c0830189613e1c565b828103602084015261416081896139c7565b905082810360408401526141748188613e55565b60608401969096525050608081019290925260a0909101529392505050565b828152604060208201526000610f2f60408301846132af565b600082516141be81846020870161328b565b9190910192915050565b60ff8181168382160190811115610a6757610a67613cfb565b600181815b8085111561421c57816000190482111561420257614202613cfb565b8085161561420f57918102915b93841c93908002906141e6565b509250929050565b60008261423357506001610a67565b8161424057506000610a67565b816001811461425657600281146142605761427c565b6001915050610a67565b60ff84111561427157614271613cfb565b50506001821b610a67565b5060208310610133831016604e8410600b841016171561429f575081810a610a67565b6142a983836141e1565b80600019048211156142bd576142bd613cfb565b029392505050565b60006115ee60ff84168361422456fea26469706673582212207dca3c80e15bd3b53926cf0e06a51393161a9361f79a2e4ce3cfea3408827e8464736f6c63430008140033",
  "linkReferences": {},
  "deployedLinkReferences": {}
}